:020000040800F2
:100000002007002089010008251300081D1300089F
:100010002113000845020008E9170008000000004D
:100020000000000000000000000000003D16000875
:1000300049020008000000002913000811170008F9
:10004000A3010008A3010008A3010008A301000800
:10005000A3010008A3010008A3010008A3010008F0
:10006000A3010008A301000855020008A30100082D
:10007000A3010008A3010008A3010008A3010008D0
:10008000A3010008A3010008A3010008A3010008C0
:10009000A3010008A3010008A30100085D020008F5
:1000A000A3010008A3010008A3010008A3010008A0
:1000B000A3010008A3010008A3010008A301000890
:1000C000A3010008A3010008A3010008A301000880
:1000D000A3010008A3010008DD170008A301000820
:1000E0004D020008A3010008A301000800F002F877
:1000F00000F03AF80AA090E8000C82448344AAF188
:100100000107DA4501D100F02FF8AFF2090EBAE885
:100110000F0013F0010F18BFFB1A43F0010318473B
:10012000381F0000581F0000103A24BF78C878C15B
:10013000FAD8520724BF30C830C144BF04680C60ED
:10014000704700000023002400250026103A28BF35
:1001500078C1FBD8520728BF30C148BF0B60704739
:100160001FB51FBD10B510BD00F031F81146FFF7E7
:10017000F7FF01F0CDFC00F04FF803B4FFF7F2FFFA
:1001800003BC00F057F800000948804709480047C1
:10019000FEE7FEE7FEE7FEE7FEE7FEE7FEE7FEE737
:1001A000FEE7FEE704480549054A064B7047000094
:1001B00015170008ED00000820010020200700208E
:1001C00020030020200300207047704770477546C9
:1001D00000F02CF8AE4605006946534620F00700B3
:1001E000854618B020B5FFF7DDFFBDE820404FF091
:1001F00000064FF000074FF000084FF0000BAC4630
:10020000ACE8C009ACE8C009ACE8C009ACE8C0097A
:1002100021F007018D46704710B50446AFF300800A
:100220002046BDE81040FFF7A8BF00000048704717
:100230001000002001491820ABBEFEE72600020096
:1002400070470000FEE70000704700004FF40050C8
:1002500000F0C8B8102000F0C5B80000802000F001
:10026000C1B80000014690F82100022816D10868A4
:10027000D1E90FC3026822F00E020260026822F088
:1002800001020260012000FA03F2CCF8042081F898
:1002900021000020002281F820207047042088637C
:1002A0000120002281F820207047000080B590F8DE
:1002B0002110022924D10268116821F00E01116079
:1002C0002F211368C4F202018A4240F20401C4F2F1
:1002D000020123F00103136016DD3023C4F2020390
:1002E0009A421DD04423C4F202039A421CD05823E0
:1002F000C4F202039A421DD14FF4803322E000BFC2
:1003000004218163012080BD0823C4F202039A42C4
:100310000ED01C23C4F202039A420BD1102311E029
:100320004FF480730EE000BF4FF480530AE000BF2B
:10033000012307E001F1680C4FF08073624508BFAC
:100340004FF480130B60416B4FF48072028401B153
:100350008847002080BD0000B0B50446282000F08A
:10036000C9F9172000F0C6F90A2000F0C3F940F2DD
:100370007005102CC2F2000516D0B4F5005F27D02E
:10038000802C28D16869411E0028696107DC296931
:100390003F206861481EB8BF40F2FF10286100F09E
:1003A000C5FF01F04DF916E06869411C3F286961FD
:1003B00008DB296900206861481CB1F5FF7FC8BFD0
:1003C0000020286100F0B2FF01F03AF903E000BF1D
:1003D000FF2001F00BFA0120686000F025F9A86009
:1003E000B0BD000040F21441C4F201010A680242AB
:1003F00014BF08607047FFF7AFBF00002DE9F04F52
:1004000082B041F20042C4F201020E68042390421D
:1004100008BF0323002E009300F0F68040F20C4E3C
:100420004FF6FF7CC4F2010E00220124C1F2100C31
:100430004FF0000A4FF0000943E000BF012502F031
:100440000C040F27A7402BEA070705FA04F43C43E6
:1004500043F82640D1F804B040F20045C4F201054B
:100460005FEACB332B6854BF23EA080343EA08034F
:100470002B606B685FEA8B3454BF23EA080343EABE
:1004800008036B605FEACB24AB6854BF23EA080320
:1004900043EA08035FEA8B24AB60DEF800304FF0DC
:1004A000010454BF23EA080343EA0803CEF80030EE
:1004B0000E680AF1010A36FA0AF302F1040200F0AA
:1004C000A38004FA0AF816EA080FF1D04B686345D6
:1004D00012DC122B56D8DFE803F0350B4549555591
:1004E00055555555555555555555554D510000BF08
:1004F000D1F80C9046E000BF4FF6FF77C1F221071C
:10050000BB420FDC0027C1F21107BB421AD0002703
:10051000C1F21207BB4215D00027C1F22107BB422E
:1005200010D02FE00027C1F22207BB420AD00027DB
:10053000C1F23107BB4205D00027C1F23207BB42EE
:1005400020D100BF8B684BB1012B14BFC0F81480C1
:10055000C0F810804FF0080914E000BF4FF0040904
:1005600010E000BFCB6803F108090BE04FF0000971
:1005700008E000BFCB6803F1040903E0CB6803F196
:100580000C0900BF13460546BAF1080F24BF203BF3
:1005900004352E680F279F40BE4309FA03F3334307
:1005A0002B60CB79DB067FF583AF41F21804C4F2F0
:1005B000020423684FEA9A0643F00103236023688C
:1005C00040F6000403F001030193019B40F2004355
:1005D000C4F20103A3F57E7353F826B0C4F20104FC
:1005E000A0420FD040F60044C4F20104A0423FF400
:1005F00025AF41F20004C4F20104009DA04208BFEF
:1006000002251CE700251AE702B0BDE8F08F0000C4
:100610008068084018BF012070470000002A08BF0A
:10062000090401617047000040F21C10C2F2000092
:100630000068704740F2000040F21C11C2F2000056
:10064000C2F2000100780A68104408607047000098
:1006500080B542F20000C4F20200016841F01001CE
:100660000160032000F096F8002000F005F800F08B
:1006700027F8002080BD000070B540F20006C2F2ED
:10068000000640F208013278C2F200014FF47A739A
:100690000968B3FBF2F20446B1FBF2F1084600F040
:1006A0006BFB0F2C4FF0010508D838B94FF0FF3025
:1006B00021460022002500F041F87460284670BDF4
:1006C00082B041F21800C4F20200016841F0010159
:1006D0000160016801F0010101910199416841F057
:1006E00080514160406800F080500090009802B056
:1006F00070470000002848BF704700F01F0101222A
:1007000002FA01F14EF280124009CEF2000242F8E4
:100710002010BFF34F8FBFF36F8F7047002848BF83
:10072000704700F01F01012202FA01F14EF200129F
:100730004009CEF2000242F82010704710B54EF684
:100740000C5CCEF2000CDCF80030C3F3022E8EF00D
:100750000704042C28BF0424BEF103034FF0FF3E1E
:100760000EFA04F438BF0023A14399400EFA03F3B4
:100770009A43114300F00F02043A624409010C321B
:1007800000F16043B0F1FF3FC8BF03F56442117050
:1007900010BD00004EF60C51CEF200010A684FF673
:1007A000FF031A4060F30A2242F0806040F0FD70BF
:1007B000086070472DE9F04381B0002800F0858083
:1007C00042F20008C4F202080446D8F800000D46C0
:1007D00000F0070088420CD2D8F8000020F0070093
:1007E0002843C8F80000D8F8000000F00700A8422D
:1007F0006BD1206841F204098107C4F2020917D5C0
:10080000410705D5D9F8001041F4E061C9F800109E
:10081000010705D5D9F8001041F46051C9F800105E
:10082000D9F80010A26821F0F0011143C9F80010B6
:10083000C00741D1D8F8000000F00700A8420CD949
:10084000D8F8000020F007002843C8F80000D8F8C6
:10085000000000F00700A84237D12068410707D503
:10086000D9F80010E26821F4E0611143C9F80010E2
:10087000000708D5D9F80000216920F4605040EA4B
:10088000C100C9F80000D9F8002002F00C000828C7
:1008900041F20020C0F27A0050D142F24803C2F384
:1008A0008341C0F60003595CD2033BD440F60010EC
:1008B000C0F23D00484341E0606802280AD00128A8
:1008C0002AD159F8041C890308D4012001B0BDE8DD
:1008D000F08300BF59F8041C8901F6D5D9F800103F
:1008E00021F003010843C9F80000FFF79DFE06460A
:1008F00041F28837D9F80000616800F00C00B0EBD5
:10090000810F97D0FFF790FE801BB842F2D90320E9
:1009100001B0BDE8F08300BF59F8041C8907D4D5A5
:10092000DCE700BFD9F8002042F22E03C2F34042B8
:10093000C0F600039A5C4843B0FBF2F0D9F800100F
:1009400042F23002C1F30311C0F60002515C40F2E2
:10095000080220FA01F140F20400C2F2000000682F
:10096000C2F200021160FFF787FE002001B0BDE86F
:10097000F083000040F2080041F20401C2F20000DE
:10098000C4F202010068096842F24002C1F3022188
:10099000C0F60002515CC8407047000040F20800F9
:1009A00041F20401C2F20000C4F2020100680968C9
:1009B00042F24002C1F3C221C0F60002515CC840BD
:1009C000704700002DE9F04182B0002868D004464D
:1009D000007841F20006C007C4F2020625D0706814
:1009E00000F00C0004281BD0706800F00C000828F0
:1009F00002D17068C00313D46068002800F06881D9
:100A0000B0F5A02F00F07C81B0F5803F00F07C8134
:100A1000306820F480303060306820F4802076E147
:100A20003068800301D56068D0B32078800718D57E
:100A3000706810F00C0F07D0706800F00C000828E8
:100A40006ED17068C0036BD43068800702D520690E
:100A5000012825D13068616920F0F80040EAC10022
:100A60003060207800071FD42078400732D4E56931
:100A700095B1706800F00C00082840F08F80012DBF
:100A80000ED07068216A00F480328A4208D1616A0F
:100A900000F47010884203D1002002B0BDE8F0815C
:100AA000012002B0BDE8F081A069002862D00020DA
:100AB000C4F242200121C0F88014FFF7B5FD0546BD
:100AC000706A800700F18C80FFF7AEFD401B0228A2
:100AD000F6D92AE1F06910F0805808D1F06940F0A9
:100AE0008050F061F06900F080500090009847F26B
:100AF0000007C4F200073868C00529D4386840F4FC
:100B000080703860FFF790FD054600BF3868C0056B
:100B10001ED4FFF789FD401B6428F7D905E100BF0B
:100B20002069002840F20000C4F2422000F08280D8
:100B300001210160FFF778FD054600BF306880079E
:100B40003FF588AFFFF770FD401B0228F6D9ECE0B7
:100B5000E068002800F08080052800F097800128D8
:100B600000F09880306A20F001003062306A20F096
:100B7000040092E00020C4F242200021C0F880145A
:100B8000FFF752FD054600BF706A80077FF56CAF26
:100B9000FFF74AFD401B0228F6D9C6E00027C4F241
:100BA000422700203866FFF73FFD022D05460BD196
:100BB0003068800140F1BE80FFF736FD401B0228FF
:100BC0004FF00300F4D968E7306880017FF564AF27
:100BD000FFF72AFD401B02284FF00300F4D95CE721
:100BE00040F20800C2F20000006844F6D351C1F29E
:100BF0006201A0FB0101480A019000BF00BF0198FB
:100C0000411E002801913FF42FAF00BF0198411E03
:100C1000002801913FF428AF00BF0198411E002831
:100C200001913FF421AF00BF0198411E00280191BE
:100C3000E4D119E700210160FFF7F6FC054600BF8B
:100C4000306880077FF50DAFFFF7EEFC401B0228F0
:100C50004FF00300F4D920E7306A20F00100306241
:100C6000306A20F004003062FFF7DEFC054641F2F6
:100C7000883700BF306A800720D5FFF7D5FC401BBE
:100C8000B8424FF00300F5D907E700BF306A40F0E3
:100C900004003062306A40F001003062FFF7C4FCAB
:100CA000054641F2883700BF306A800706D4FFF757
:100CB000BBFC401BB842F7D937E000BFB8F1000FCA
:100CC0007FF4D5AEF06920F08050F061CFE600BF30
:100CD000306820F480303060306820F4802030604C
:100CE000FFF7A2FC054600BF306880037FF59DAE8C
:100CF000FFF79AFC401B64284FF00300F4D9CCE6C0
:100D0000306840F480203060306840F480303060DB
:100D1000FFF78AFC054600BF306880033FF585AECB
:100D2000FFF782FC401B6428F6D9032002B0BDE81F
:100D3000F08100BF206AB0F5803F05D17168A268DC
:100D400021F40031114371607168626A21F47411F9
:100D500010430843706001203866FFF765FC0446C5
:100D6000306880013FF598AEFFF75EFC001B02285B
:100D70004FF00300F4D990E6411E0020B0EB116F54
:100D80001CBF012070474EF21002CEF200025160EB
:100D90004EF62351CEF20001F0230B700721906034
:100DA000116070477047000070470000B0B582B016
:100DB000026805461068D368546900F02F012029A5
:100DC00003F0200106D129B1284602B0BDE8B040A9
:100DD00000F0A8BC5FEA007C1EBF04F0010E03F423
:100DE000907414EB0E0455D1296B012905D110F034
:100DF000100118BF13F0100136D1010622D513F0EF
:100E000080011FD095F83D00212841D1A868B0F598
:100E1000805F03D12869002800F0F680286A411C11
:100E2000296200785060E88C01380104E8842FD1F1
:100E3000D06820F08000D060D06840F04000D060E2
:100E400002B0B0BD400623D513F0400020D0D068DA
:100E5000202120F04000D060284685F83D1002B0E7
:100E6000BDE8B04000F058BA002001901068019031
:100E70005068019001985069400613D4A88DE98DFF
:100E8000EB8D002B1CBF401A5FEA004140F0A480AC
:100E900002B0B0BDC40718BF13F480732CD1430750
:100EA00030D436E0A86B01684B689CB2002CEFD0C0
:100EB000A98D8C42ECD2EB858369202B17D0D168A9
:100EC00021F48071D160516921F0010151615169B2
:100ED00021F040015161202185F83E100021296355
:100EE000D16821F01001D160FFF7BCF9A98DE88D20
:100EF000081A81B2284682E02B6C43F001032B6470
:100F0000430706D5BEF1000F03D02B6C43F002035C
:100F10002B64830706D5BEF1000F03D02B6C43F082
:100F200004032B64BCF1000F06D551EA0E0303D075
:100F30002B6C43F008032B642B6C002BA8D010F013
:100F4000200018BF002903D0284600F0EBFB2A68D8
:100F50005069296C00F0400001F0080140182DD0C4
:100F6000D06820F49070D060506920F0010050618A
:100F7000286B012803D1D06820F01000D060202019
:100F800085F83E0000202863506940061ED5506950
:100F900020F040005061A86BC0B141F21971C0F659
:100FA00000014163FFF782F900283FF471AFA86B9D
:100FB000416B02B0BDE8B040084700BF2846FFF7CC
:100FC000F3FE0020286402B0B0BD00BF284602B086
:100FD000BDE8B040FFF7E8BED16821F49071D16060
:100FE000516921F001015161202185F83E10002155
:100FF0002963D16821F0100381B22846D36002B082
:10100000BDE8B040FFF7CEBE286A30F8021B6FF390
:101010005F215160286206E7002804BF0120704765
:1010200010B5044690F83D0028B9002084F83C0033
:10103000204600F05FF8242084F83D002068D4E9C1
:101040000212C36823F40053C360036923F44053BE
:101050001A430261D4E904231143C268194341F2DF
:101060000C639A431143C1604169A26921F4407144
:10107000114343F60002C4F201029042416103D0E1
:10108000FFF778FC02E000BFFFF788FC62681921D7
:1010900048439100B0FBF1F048F21F51C5F2EB114B
:1010A000A0FB01235A096FF0630302FB0300322304
:1010B00003EB0010A0FB0101F02303EA51132068A9
:1010C00003EB0212C1F3431111448160016921F461
:1010D00090410161416921F02A014161C16841F4F7
:1010E0000051C16000202021206484F83D1084F864
:1010F0003E1010BD70B586B040F60004C4F2010485
:101100000068A4F5444100268842049602D006B047
:1011100070BD00BF41F21800C4F20200416802AD88
:1011200041F400314160416801F4003101910199BD
:10113000016841F0040101600068294600F00400E4
:101140000190019804200290022003900320059052
:101150002046FFF753F90820CDE90206204629462C
:101160000496FFF74BF9262000210022FFF7E6FA4C
:101170002620FFF7D3FA06B070BD0000034690F8B2
:101180003E0020280AD100294FF0010018BF002A94
:1011900000D1704793F83C00012801D1022070472C
:1011A00000201863996222219A85DA85186483F8F1
:1011B0003E10196883F83C00CA6842F48072CA6025
:1011C0004A6942F001024A61CA6842F02002CA60DC
:1011D0007047000070B540F27004C2F2000421783C
:1011E000481E04281CD8DFE800F0032139535900B9
:1011F0004025002602E000BF013D5ED0002000F047
:10120000F5FA6069411C3F286161F5DB2069666180
:10121000411CB0F5FF7FC8BF00212161ECE700BF92
:10122000802904BF0020C4E9040046E040250026D0
:1012300002E000BF013D40D0FF2000F0D7FA606916
:10124000411C3F286161F5DB20696661411CB0F5F6
:10125000FF7FC8BF00212161ECE700BF0025002609
:1012600003E000BF0136402E1ED000F05FF8626937
:10127000A11981F82800501C3F2A6061F2DB206927
:101280006561411CB0F5FF7FC8BF00212161E9E71E
:10129000D4E90410C4E906010FE000BFD4E9061048
:1012A000C4E9040109E000BF40F2D80004F12801BC
:1012B000C2F20000402200F00DF840F2D80040F2E7
:1012C0007001C2F20000C2F200010122BDE87040CC
:1012D000FFF754BF034690F83D0020280AD10029AB
:1012E0004FF0010018BF002A00D1704793F83C006E
:1012F000012801D1022070471962002021219A841F
:10130000DA84186483F83D10196883F83C00CA68D1
:1013100042F08002CA60704770470000FEE700009C
:10132000FEE70000FEE7000070470000F0B581B066
:1013300041F20004C4F20104A4F50065284601212D
:101340000022FFF76BF9284602210122FFF766F918
:10135000284640210022FFF761F92846802100221B
:10136000FFF75CF928464FF480710022FFF756F929
:1013700028464FF400710022FFF750F928464FF439
:1013800080610022FFF74AF928464FF400610022ED
:10139000FFF744F928464FF480510022FFF73EF949
:1013A00020464FF480610022FFF738F920464FF4C1
:1013B00000610022FFF732F9204601210022FFF7E9
:1013C0002DF9204602210022FFF728F920460421AA
:1013D0000022FFF723F9204608210022FFF71EF91B
:1013E000204610210022FFF719F920462021002273
:1013F000FFF714F940F27007C2F200073869C1071D
:1014000040F09680810700F19C80410700F1A280A6
:10141000010700F1A980C10600F1B080810600F14A
:10142000B780410600F1BE80010600F1C580C0050D
:1014300000F1CC807869C10740F0D280810700F1CB
:10144000D880410700F1DE80010700F1E480C10689
:1014500000F1EA80800604D5204620210122FFF712
:10146000DDF8204640210022FFF7D8F8A4F5806679
:1014700030464FF40051FFF7CBF887F82000304694
:101480004FF48041FFF7C4F887F82100304604216B
:10149000FFF7BEF887F8220030464FF40061FFF7EF
:1014A000B7F887F8230030464FF48051FFF7B0F8C3
:1014B00087F8240030464FF40041FFF7A9F887F879
:1014C000250030464021FFF7A3F887F82600304674
:1014D0008021FFF79DF887F8270028460121002288
:1014E000FFF79CF8204640210022FFF797F897F875
:1014F000260097F82710800100EBC11097F82510FF
:1015000097F8242000EB411097F8233000EB0210ED
:1015100097F8201097F8212097F8227000EBC3006D
:1015200000EB870000EB42000844C0B201B0F0BD00
:10153000284640210122FFF771F8386981077FF5BD
:1015400064AF284680210122FFF768F83869410717
:101550007FF55EAF28464FF480710122FFF75EF8F9
:10156000386901077FF557AF28464FF40071012213
:10157000FFF754F83869C1067FF550AF28464FF49D
:1015800080610122FFF74AF8386981067FF549AF8B
:1015900028464FF400610122FFF740F83869410600
:1015A0007FF542AF28464FF480510122FFF736F80D
:1015B000386901067FF53BAF20464FF48061012278
:1015C000FFF72CF83869C0057FF534AF20464FF49B
:1015D00000610122FFF722F87869C1073FF42EAFBE
:1015E000204601210122FFF719F8786981077FF56C
:1015F00028AF204602210122FFF710F87869410741
:101600007FF522AF204604210122FFF707F8786911
:1016100001077FF51CAF204608210122FEF7FEFFDF
:101620007869C1067FF516AF204610210122FEF72A
:10163000F5FF786980067FF514AF0DE7704700006D
:1016400040F27000C2F2000090F82110012907D08A
:1016500091B990F8201059B101290DD1CF210AE09C
:1016600090F8201031B1012906D1C92103E000BF53
:10167000FF2100E0F921017390F8231041B1012905
:1016800012D190F8221001290AD069B9F9210AE093
:1016900090F82210012905D031B9FF2103E000BFE5
:1016A000C92100E0CF21417390F8251041B10129F3
:1016B00012D190F8241001290AD069B9F9210AE061
:1016C00090F82410012905D031B9FF2103E000BFB3
:1016D000C92100E0CF21817390F8271041B1012981
:1016E00014D190F8261001290CD079B9F9210CE019
:1016F00090F82610012907D0002918BF7047FF2154
:1017000003E000BFC92100E0CF21C1737047000092
:10171000FEF790BF70470000406A0021C185C18478
:10172000FFF742BB81B090F83E10222920D1836898
:10173000B3F5805F08D10169002941D000F128018B
:101740000A6803685B680AE0014651F8282F13B95C
:101750000369002BF5D003685B6803F07F03137007
:101760000A6801320A60C18D01390A04C18501D0BD
:1017700001B070470168CA6822F02002CA60CA68D6
:1017800022F48072CA604A6922F001024A61202272
:1017900080F83E20026B012A1CD100220263CB6834
:1017A00023F01003CB600B68DB0605D500920A68B6
:1017B0000092496800910099818D01B0FFF7F2BA5B
:1017C0000168826A49686FF35F2122F8021B826216
:1017D000C9E700BF01B0FFF7FDBC000040F2D80030
:1017E000C2F20000FFF7E2BAFEE700002DE9F04385
:1017F00089B040F60005C4F2010505F5006406460F
:10180000204640210022FEF709FF2846012101223F
:10181000FEF704FF284602210122FEF7FFFE2846BC
:1018200040210022FEF7FAFE284680210022FEF722
:10183000F5FE28464FF480710022FEF7EFFE2846A1
:101840004FF400710022FEF7E9FE28464FF4806154
:101850000022FEF7E3FE28464FF400610022FEF767
:10186000DDFE28464FF480510022FEF7D7FE2046C9
:101870004FF480610022FEF7D1FE20464FF4006154
:101880000022FEF7CBFE204601210022FEF7C6FE15
:10189000204602210022FEF7C1FE2046042100223C
:1018A000FEF7BCFE204608210022FEF7B7FE2046C8
:1018B00010210022FEF7B2FE204620210022FEF772
:1018C000ADFE40F27007C2F200073869C10740F070
:1018D0009980810700F19F80410700F1A5800107F1
:1018E00000F1AC80C10600F1B380810600F1BA803E
:1018F000410600F1C180010600F1C880C00500F179
:10190000CF807869C10740F0D580810700F1DB8086
:10191000410700F1E180010700F1E780C10600F115
:10192000ED80800604D5204620210122FEF776FEB8
:1019300011200690022005F580674FF6C4084FF08D
:101940000009089005A93846CDF81480CDF81C9000
:10195000FEF754FD284601210022FEF75FFE2846CF
:1019600002210022FEF75AFE06F0010238468021CD
:10197000FEF754FEC6F3400238464021FEF74EFE05
:10198000C6F3800238464FF40041FEF747FEC6F327
:10199000C00238464FF48051FEF740FEC6F30012F5
:1019A00038464FF40061FEF739FEC6F34012384660
:1019B0000421FEF733FEC6F3801238464FF480410F
:1019C000FEF72CFEF20938464FF40051FEF726FED2
:1019D000284601210122FEF721FE2846022101228C
:1019E000FEF71CFE204640210022FEF717FE01A94B
:1019F0003846CDE90189CDF80C90FEF7FFFC09B01F
:101A0000BDE8F083284640210122FEF707FE386931
:101A100081077FF561AF284680210122FEF7FEFD98
:101A2000386941077FF55BAF28464FF4807101228A
:101A3000FEF7F4FD386901077FF554AF28464FF4EF
:101A400000710122FEF7EAFD3869C1067FF54DAF4E
:101A500028464FF480610122FEF7E0FD38698106D7
:101A60007FF546AF28464FF400610122FEF7D6FD10
:101A7000386941067FF53FAF28464FF48051012277
:101A8000FEF7CCFD386901067FF538AF20464FF4EC
:101A900080610122FEF7C2FD3869C0057FF531AFD4
:101AA00020464FF400610122FEF7B8FD7869C107B6
:101AB0003FF42BAF204601210122FEF7AFFD7869EC
:101AC00081077FF525AF204602210122FEF7A6FD02
:101AD000786941077FF51FAF204604210122FEF7F8
:101AE0009DFD786901077FF519AF20460821012285
:101AF000FEF794FD7869C1067FF513AF20461021EB
:101B00000122FEF78BFD786980067FF511AF0AE7A9
:101B100090B0FEF79DFD00240120CDE90B44CDE9F6
:101B2000094406900A904FF4E0104FF480310225EA
:101B30000F9006A8CDE90714CDE90D51FEF742FF3D
:101B400020B1EFF3108072B6FEE700BF0F20CDE9A1
:101B500001054FF48060CDE9040401A8022103943B
:101B6000FEF728FE20B1EFF3108072B6FEE700BF4B
:101B7000002741F218000997C4F20200016841F2FF
:101B8000000A41F0100101600168C4F2010A01F08D
:101B9000100101910199016840F6000441F0200113
:101BA00001600168002201F02001019101990168A2
:101BB000C4F2010441F004010160016840F67F466F
:101BC00001F0040101910199016841F008010160EF
:101BD000006840F67F4100F00800019001985046EF
:101BE000FEF71CFD204641F6E3710022FEF716FDCC
:101BF000AAF5806948464FF4E0610022FEF70EFD29
:101C000040F200084FF40050C1F21108069008F5A8
:101C1000801006ADCDE9070750462946FEF7EEFBDA
:101C2000069611264FF0020B50462946CDE907676C
:101C3000CDF824B0FEF7E2FB41F6C37006A981E8B7
:101C4000C10820462946FEF7D9FB1020CDE9060839
:101C5000204629460897FEF7D1FB20200690012652
:101C600007A880E8C00820462946FEF7C7FB4FF6C4
:101C7000C400CDE90607484629460897FEF7BEFB93
:101C80004FF4E06006A981E8C10848462946FEF7FE
:101C9000B5FB8020CDE90608504629460897FEF797
:101CA000ADFB0A2000210022FEF748FD0A20FEF7C6
:101CB00035FD172000210022FEF740FD1720FEF71A
:101CC0002DFD282000210022FEF738FD2820FEF7F8
:101CD00025FD40F2D80044F20041C2F20000C4F2F7
:101CE00000010C234FF4E13280E88600C0E903775D
:101CF000C0E90537C761FFF78FF928B1EFF310800E
:101D000072B600BFFEE700BF40F2700540F2D80097
:101D1000C2F200054EF28026C2F2000029460122DE
:101D20004FF00009CEF20006FFF728FA4FF61447ED
:101D3000CFF6FF774FF4807A4FF4000B4FF48068B2
:101D400010E000BF297B012000F02EF8697B022003
:101D500000F02AF8A97B042000F026F8E97B08208F
:101D600000F022F868680028ECD0FEF75DFCA96856
:101D7000401AC928E6D38020E0511020E0514FF4EA
:101D80000050E0512820C6F804A0C6F800B0C6F8FC
:101D90000080FEF7C3FC1720FEF7C0FC0A20FEF708
:101DA000BDFCC5F80490CDE770B540F60044C4F220
:101DB00001040E460546CA0920464FF48071FEF71D
:101DC0002DFC20464FF400710122FEF727FC20462F
:101DD0004FF400710022FEF721FCC6F3801220466A
:101DE0004FF48071FEF71AFC20464FF40071012277
:101DF000FEF714FC20464FF400710022FEF70EFCA3
:101E0000C6F3401220464FF48071FEF707FC2046CF
:101E10004FF400710122FEF701FC20464FF40071DF
:101E20000022FEF7FBFBC6F3001220464FF4807140
:101E3000FEF7F4FB20464FF400710122FEF7EEFBA3
:101E400020464FF400710022FEF7E8FBC6F3C00203
:101E500020464FF48071FEF7E1FB20464FF40071FD
:101E60000122FEF7DBFB20464FF400710022FEF753
:101E7000D5FBC6F3800220464FF48071FEF7CEFBFF
:101E800020464FF400710122FEF7C8FB20464FF4B4
:101E900000710022FEF7C2FBC6F3400220464FF459
:101EA0008071FEF7BBFB20464FF400710122FEF764
:101EB000B5FB20464FF400710022FEF7AFFB06F0A1
:101EC000010220464FF48071FEF7A8FB20464FF434
:101ED00000710122FEF7A2FB20464FF400710022A0
:101EE000FEF79CFBEA0920464FF48071FEF796FB53
:101EF00020464FF400710122FEF790FB20464FF47C
:101F000000710022FEF78AFBC5F3801220464FF4D1
:101F10008071FEF783FB20464FF400710122FEF72B
:101F20007DFB20464FF400710022FEF777FBC5F3DE
:101F3000401220464FF48071FEF770FB20464FF4AC
:101F400000710122FEF76AFB20464FF40071002267
:101F5000FEF764FBC5F3001220464FF48071FEF7D4
:101F60005DFB20464FF400710122FEF757FB20462F
:101F70004FF400710022FEF751FBC5F3C00220466A
:101F80004FF48071FEF74AFB20464FF400710122A6
:101F9000FEF744FB20464FF400710022FEF73EFBA3
:101FA000C5F3800220464FF48071FEF737FB2046D0
:101FB0004FF400710122FEF731FB20464FF400710F
:101FC0000022FEF72BFBC5F3400220464FF4807140
:101FD000FEF724FB20464FF400710122FEF71EFBA2
:101FE00020464FF400710022FEF718FB05F00102B5
:101FF00020464FF48071FEF711FB20464FF400712C
:102000000122FEF70BFB20464FF400710022FEF781
:1020100005FB20464FF480610122FEF7FFFA2046BF
:102020004FF480610022BDE87040FEF7F7BA01026C
:102030000000000000000000010203040607080978
:10204000000000000102030402030405060708095A
:102050000A0B0C0D0E0F1010782000080000002055
:10206000100000002801000888200008100000204F
:1020700010070000440100080100000010000000EB
:082080000024F4000000000040
:04000005080000ED02
:00000001FF
