:020000040800F2
:1000000058070020890100080D1400080514000895
:100010000914000845020008E1170008000000006C
:1000200000000000000000000000000005170008AC
:100030004902000800000000111400080917000818
:10004000A3010008A3010008A3010008A301000800
:10005000A3010008A3010008A3010008A3010008F0
:10006000A3010008A301000855020008A30100082D
:10007000A3010008A3010008A3010008A3010008D0
:10008000A3010008A3010008A3010008A3010008C0
:10009000A3010008A3010008A30100085D020008F5
:1000A000A3010008A3010008A3010008A3010008A0
:1000B000A3010008A3010008A3010008A301000890
:1000C000A3010008A3010008A3010008A301000880
:1000D000A3010008A3010008D5170008A301000828
:1000E0004D020008A3010008A301000800F002F877
:1000F00000F03AF80AA090E8000C82448344AAF188
:100100000107DA4501D100F02FF8AFF2090EBAE885
:100110000F0013F0010F18BFFB1A43F0010318473B
:10012000641F0000841F0000103A24BF78C878C103
:10013000FAD8520724BF30C830C144BF04680C60ED
:10014000704700000023002400250026103A28BF35
:1001500078C1FBD8520728BF30C148BF0B60704739
:100160001FB51FBD10B510BD00F031F81146FFF7E7
:10017000F7FF01F0DBFC00F04FF803B4FFF7F2FFEC
:1001800003BC00F057F800000948804709480047C1
:10019000FEE7FEE7FEE7FEE7FEE7FEE7FEE7FEE737
:1001A000FEE7FEE704480549054A064B7047000094
:1001B0000D170008ED000008580100205807002026
:1001C0005803002058030020704770477047754659
:1001D00000F02CF8AE4605006946534620F00700B3
:1001E000854618B020B5FFF7DDFFBDE820404FF091
:1001F00000064FF000074FF000084FF0000BAC4630
:10020000ACE8C009ACE8C009ACE8C009ACE8C0097A
:1002100021F007018D46704710B50446AFF300800A
:100220002046BDE81040FFF7A8BF00000048704717
:100230001000002001491820ABBEFEE72600020096
:1002400070470000FEE70000704700004FF40050C8
:1002500000F084B8102000F081B80000802000F089
:100260007DB80000014690F82100022816D10868E8
:10027000D1E90FC3026822F00E020260026822F088
:1002800001020260012000FA03F2CCF8042081F898
:1002900021000020002281F820207047042088637C
:1002A0000120002281F820207047000080B590F8DE
:1002B0002110022924D10268116821F00E01116079
:1002C0002F211368C4F202018A4240F20401C4F2F1
:1002D000020123F00103136016DD3023C4F2020390
:1002E0009A421DD04423C4F202039A421CD05823E0
:1002F000C4F202039A421DD14FF4803322E000BFC2
:1003000004218163012080BD0823C4F202039A42C4
:100310000ED01C23C4F202039A420BD1102311E029
:100320004FF480730EE000BF4FF480530AE000BF2B
:10033000012307E001F1680C4FF08073624508BFAC
:100340004FF480130B60416B4FF48072028401B153
:100350008847002080BD00007047000040F2144133
:10036000C4F201010A68024214BF08607047FFF737
:10037000F3BF00002DE9F04F82B041F20042C4F219
:1003800001020E680423904208BF0323002E00934D
:1003900000F0F68040F20C4E4FF6FF7CC4F2010EE6
:1003A00000220124C1F2100C4FF0000A4FF00009A6
:1003B00043E000BF012502F00C040F27A7402BEA01
:1003C000070705FA04F43C4343F82640D1F804B08B
:1003D00040F20045C4F201055FEACB332B6854BFFD
:1003E00023EA080343EA08032B606B685FEA8B3457
:1003F00054BF23EA080343EA08036B605FEACB2497
:10040000AB6854BF23EA080343EA08035FEA8B247E
:10041000AB60DEF800304FF0010454BF23EA08035C
:1004200043EA0803CEF800300E680AF1010A36FAF2
:100430000AF302F1040200F0A38004FA0AF816EAB3
:10044000080FF1D04B68634512DC122B56D8DFE859
:1004500003F0350B45495555555555555555555589
:100460005555554D510000BFD1F80C9046E000BFE6
:100470004FF6FF77C1F22107BB420FDC0027C1F224
:100480001107BB421AD00027C1F21207BB4215D098
:100490000027C1F22107BB4210D02FE00027C1F294
:1004A0002207BB420AD00027C1F23107BB4205D068
:1004B0000027C1F23207BB4220D100BF8B684BB18D
:1004C000012B14BFC0F81480C0F810804FF0080949
:1004D00014E000BF4FF0040910E000BFCB6803F147
:1004E00008090BE04FF0000908E000BFCB6803F1FA
:1004F000040903E0CB6803F10C0900BF134605466D
:10050000BAF1080F24BF203B04352E680F279F4007
:10051000BE4309FA03F333432B60CB79DB067FF547
:1005200083AF41F21804C4F2020423684FEA9A062A
:1005300043F001032360236840F6000403F0010345
:100540000193019B40F20043C4F20103A3F57E73C3
:1005500053F826B0C4F20104A0420FD040F6004484
:10056000C4F20104A0423FF425AF41F20004C4F2FA
:100570000104009DA04208BF02251CE700251AE7E0
:1005800002B0BDE8F08F00008068084018BF01206D
:1005900070470000002A08BF09040161704700008D
:1005A00040F25010C2F200000068704740F20000B4
:1005B00040F25011C2F20000C2F2000100780A6855
:1005C000104408607047000080B542F20000C4F299
:1005D0000200016841F010010160032000F082F880
:1005E000002000F005F800F027F8002080BD000092
:1005F00070B540F20006C2F2000640F208013278FF
:10060000C2F200014FF47A730968B3FBF2F20446B8
:10061000B1FBF2F1084600F057FB0F2C4FF001053B
:1006200008D838B94FF0FF3021460022002500F0ED
:100630002DF87460284670BD82B041F21800C4F2F3
:100640000200016841F001010160016801F001014F
:1006500001910199416841F080514160406800F08A
:1006600080500090009802B070470000002848BFFA
:10067000704700F01F01012202FA01F14EF2001250
:100680004009CEF2000242F82010704710B54EF635
:100690000C5CCEF2000CDCF80030C3F3022E8EF0BE
:1006A0000704042C28BF0424BEF103034FF0FF3ECF
:1006B0000EFA04F438BF0023A14399400EFA03F365
:1006C0009A43114300F00F02043A624409010C32CC
:1006D00000F16043B0F1FF3FC8BF03F56442117001
:1006E00010BD00004EF60C51CEF200010A684FF624
:1006F000FF031A4060F30A2242F0806040F0FD7070
:10070000086070472DE9F04381B0002800F0858033
:1007100042F20008C4F202080446D8F800000D4670
:1007200000F0070088420CD2D8F8000020F0070043
:100730002843C8F80000D8F8000000F00700A842DD
:100740006BD1206841F204098107C4F2020917D570
:10075000410705D5D9F8001041F4E061C9F800104F
:10076000010705D5D9F8001041F46051C9F800100F
:10077000D9F80010A26821F0F0011143C9F8001067
:10078000C00741D1D8F8000000F00700A8420CD9FA
:10079000D8F8000020F007002843C8F80000D8F877
:1007A000000000F00700A84237D12068410707D5B4
:1007B000D9F80010E26821F4E0611143C9F8001093
:1007C000000708D5D9F80000216920F4605040EAFC
:1007D000C100C9F80000D9F8002002F00C00082878
:1007E00041F20020C0F27A0050D142F27403C2F309
:1007F0008341C0F60003595CD2033BD440F600109D
:10080000C0F23D00484341E0606802280AD0012858
:100810002AD159F8041C890308D4012001B0BDE88D
:10082000F08300BF59F8041C8901F6D5D9F80010EF
:1008300021F003010843C9F80000FFF7B1FE0646A6
:1008400041F28837D9F80000616800F00C00B0EB85
:10085000810F97D0FFF7A4FE801BB842F2D9032086
:1008600001B0BDE8F08300BF59F8041C8907D4D556
:10087000DCE700BFD9F8002042F25A03C2F340423D
:10088000C0F600039A5C4843B0FBF2F0D9F80010C0
:1008900042F25C02C1F30311C0F60002515C40F267
:1008A000080220FA01F140F20400C2F200000068E0
:1008B000C2F200021160FFF79BFE002001B0BDE80C
:1008C000F083000040F2080041F20401C2F200008F
:1008D000C4F202010068096842F26C02C1F302210D
:1008E000C0F60002515CC8407047000040F20800AA
:1008F00041F20401C2F20000C4F20201006809687A
:1009000042F26C02C1F3C221C0F60002515CC84041
:10091000704700002DE9F04182B0002868D00446FD
:10092000007841F20006C007C4F2020625D07068C4
:1009300000F00C0004281BD0706800F00C000828A0
:1009400002D17068C00313D46068002800F0688189
:10095000B0F5A02F00F07C81B0F5803F00F07C81E5
:10096000306820F480303060306820F4802076E1F8
:100970003068800301D56068D0B32078800718D52F
:10098000706810F00C0F07D0706800F00C00082899
:100990006ED17068C0036BD43068800702D52069BF
:1009A000012825D13068616920F0F80040EAC100D3
:1009B0003060207800071FD42078400732D4E569E2
:1009C00095B1706800F00C00082840F08F80012D70
:1009D0000ED07068216A00F480328A4208D1616AC0
:1009E00000F47010884203D1002002B0BDE8F0810D
:1009F000012002B0BDE8F081A069002862D000208B
:100A0000C4F242200121C0F88014FFF7C9FD054659
:100A1000706A800700F18C80FFF7C2FD401B02283E
:100A2000F6D92AE1F06910F0805808D1F06940F059
:100A30008050F061F06900F080500090009847F21B
:100A40000007C4F200073868C00529D4386840F4AC
:100A500080703860FFF7A4FD054600BF3868C00508
:100A60001ED4FFF79DFD401B6428F7D905E100BFA8
:100A70002069002840F20000C4F2422000F0828089
:100A800001210160FFF78CFD054600BF306880073B
:100A90003FF588AFFFF784FD401B0228F6D9ECE054
:100AA000E068002800F08080052800F09780012889
:100AB00000F09880306A20F001003062306A20F047
:100AC000040092E00020C4F242200021C0F880140B
:100AD000FFF766FD054600BF706A80077FF56CAFC3
:100AE000FFF75EFD401B0228F6D9C6E00027C4F2DE
:100AF000422700203866FFF753FD022D05460BD133
:100B00003068800140F1BE80FFF74AFD401B02289B
:100B10004FF00300F4D968E7306880017FF564AFD7
:100B2000FFF73EFD401B02284FF00300F4D95CE7BD
:100B300040F20800C2F20000006844F6D351C1F24E
:100B40006201A0FB0101480A019000BF00BF0198AB
:100B5000411E002801913FF42FAF00BF0198411EB4
:100B6000002801913FF428AF00BF0198411E0028E2
:100B700001913FF421AF00BF0198411E002801916F
:100B8000E4D119E700210160FFF70AFD054600BF27
:100B9000306880077FF50DAFFFF702FD401B02288C
:100BA0004FF00300F4D920E7306A20F001003062F2
:100BB000306A20F004003062FFF7F2FC054641F293
:100BC000883700BF306A800720D5FFF7E9FC401B5B
:100BD000B8424FF00300F5D907E700BF306A40F094
:100BE00004003062306A40F001003062FFF7D8FC48
:100BF000054641F2883700BF306A800706D4FFF708
:100C0000CFFC401BB842F7D937E000BFB8F1000F66
:100C10007FF4D5AEF06920F08050F061CFE600BFE0
:100C2000306820F480303060306820F480203060FC
:100C3000FFF7B6FC054600BF306880037FF59DAE28
:100C4000FFF7AEFC401B64284FF00300F4D9CCE65C
:100C5000306840F480203060306840F4803030608C
:100C6000FFF79EFC054600BF306880033FF585AE68
:100C7000FFF796FC401B6428F6D9032002B0BDE8BC
:100C8000F08100BF206AB0F5803F05D17168A2688D
:100C900021F40031114371607168626A21F47411AA
:100CA00010430843706001203866FFF779FC044662
:100CB000306880013FF598AEFFF772FC001B0228F8
:100CC0004FF00300F4D990E6411E0020B0EB116F05
:100CD0001CBF012070474EF21002CEF2000251609C
:100CE0004EF62351CEF20001F0230B7007219060E5
:100CF000116070477047000070470000B0B582B0C7
:100D0000026805461068D368546900F02F01202955
:100D100003F0200106D129B1284602B0BDE8B04059
:100D200000F0FCBC5FEA007C1EBF04F0010E03F47F
:100D3000907414EB0E0455D1296B012905D110F0E4
:100D4000100118BF13F0100136D1010622D513F09F
:100D500080011FD095F83D00212841D1A868B0F549
:100D6000805F03D12869002800F0F680286A411CC2
:100D7000296200785060E88C01380104E8842FD1A2
:100D8000D06820F08000D060D06840F04000D06093
:100D900002B0B0BD400623D513F0400020D0D0688B
:100DA000202120F04000D060284685F83D1002B098
:100DB000BDE8B04000F024BB002001901068019015
:100DC0005068019001985069400613D4A88DE98DB0
:100DD000EB8D002B1CBF401A5FEA004140F0A4805D
:100DE00002B0B0BDC40718BF13F480732CD1430701
:100DF00030D436E0A86B01684B689CB2002CEFD071
:100E0000A98D8C42ECD2EB858369202B17D0D16859
:100E100021F48071D160516921F001015161516962
:100E200021F040015161202185F83E100021296305
:100E3000D16821F01001D160FFF714FAA98DE88D77
:100E4000081A81B2284682E02B6C43F001032B6420
:100E5000430706D5BEF1000F03D02B6C43F002030D
:100E60002B64830706D5BEF1000F03D02B6C43F033
:100E700004032B64BCF1000F06D551EA0E0303D026
:100E80002B6C43F008032B642B6C002BA8D010F0C4
:100E9000200018BF002903D0284600F03FFC2A6834
:100EA0005069296C00F0400001F0080140182DD075
:100EB000D06820F49070D060506920F0010050613B
:100EC000286B012803D1D06820F01000D0602020CA
:100ED00085F83E0000202863506940061ED5506901
:100EE00020F040005061A86BC0B141F21171C0F612
:100EF00000014163FFF7DAF900283FF471AFA86BF6
:100F0000416B02B0BDE8B040084700BF2846FFF77C
:100F1000F3FE0020286402B0B0BD00BF284602B036
:100F2000BDE8B040FFF7E8BED16821F49071D16010
:100F3000516921F001015161202185F83E10002105
:100F40002963D16821F0100381B22846D36002B032
:100F5000BDE8B040FFF7CEBE286A30F8021B6FF341
:100F60005F215160286206E7002804BF0120704716
:100F700010B5044690F83D0028B9002084F83C00E4
:100F8000204600F05FF8242084F83D002068D4E972
:100F90000212C36823F40053C360036923F440536F
:100FA0001A430261D4E904231143C268194341F290
:100FB0000C639A431143C1604169A26921F44071F5
:100FC000114343F60002C4F201029042416103D092
:100FD000FFF778FC02E000BFFFF788FC6268192188
:100FE00048439100B0FBF1F048F21F51C5F2EB11FC
:100FF000A0FB01235A096FF0630302FB03003223B5
:1010000003EB0010A0FB0101F02303EA5113206859
:1010100003EB0212C1F3431111448160016921F411
:1010200090410161416921F02A014161C16841F4A7
:101030000051C16000202021206484F83D1084F814
:101040003E1010BD70B586B040F60004C4F2010435
:101050000068A4F5444100268842049602D006B0F8
:1010600070BD00BF41F21800C4F20200416802AD39
:1010700041F400314160416801F40031019101996E
:10108000016841F0040101600068294600F0040095
:101090000190019804200290022003900320059003
:1010A0002046FFF767F90820CDE9020620462946C9
:1010B0000496FFF75FF9262000210022FFF7E6FAE9
:1010C0002620FFF7D3FA06B070BD0000034690F863
:1010D0003E0020280AD100294FF0010018BF002A45
:1010E00000D1704793F83C00012801D102207047DD
:1010F00000201863996222219A85DA85186483F8A2
:101100003E10196883F83C00CA6842F48072CA60D5
:101110004A6942F001024A61CA6842F02002CA608C
:10112000704700002DE9F04140F27006C2F200065F
:10113000307FD6F80C80356902281BDC012875D079
:10114000022840F027814027002401E0013F2DD0F4
:10115000002000F047FB3069411C3F283161F5DB7E
:10116000F0683461411CB0F5FF7FC8BF0021F16019
:10117000ECE700BF802877D0032840F00B814027A0
:10118000002401E0013F31D0FF2000F02BFB30694B
:10119000411C3F283161F5DBF0683461411CB0F53A
:1011A000FF7FC8BF0021F160ECE700BFC6E90385FF
:1011B00040F210150024C2F20005002704E000BF31
:1011C0000137402F00F0E68000F024F93169E8553E
:1011D000481C3F293061F3DBF0683461411CB0F5F5
:1011E000FF7FC8BF0021F160EAE700BFC6E90385C1
:1011F00040F210150024C2F20005002704E000BFF1
:101200000137402F00F0C68000F004F93169E8553D
:10121000481C3F293061F3DBF0683461411CB0F5B4
:10122000FF7FC8BF0021F160EAE700BF40F2101560
:101230000024C2F20005002704E000BF0137402F60
:1012400000F0A88000F0E6F83169E855481C3F2915
:101250003061F3DBF0683461411CB0F5FF7FC8BF3B
:101260000021F160EAE700BF40F60004C4F2010487
:10127000204601210022FFF78DF92046022101229C
:10128000FFF788F9204640210022FFF783F9204626
:1012900080210022FFF77EF920464FF48071002262
:1012A000FFF778F920464FF400710022FFF772F93A
:1012B00020464FF480610022FFF76CF920464FF47E
:1012C00000610022FFF766F920464FF480510022AA
:1012D000FFF760F904F5006528464FF480610022AD
:1012E000FFF758F928464FF400610022FFF752F942
:1012F000284601210022FFF74DF92846022100224D
:10130000FFF748F9284604210022FFF743F9284651
:1013100008210022FFF73EF9284610210022FFF79E
:1013200039F9284620210022FFF734F928464021C8
:101330000022FFF72FF904F5806420464FF4005196
:10134000FFF722F9307520464FF48041FFF71CF972
:10135000707520460421FFF717F9B07520464FF449
:101360000061FFF711F9F07520464FF48051FFF747
:101370000BF9307620464FF40041FFF705F97076FF
:1013800020464021FFF700F9B07620468021FFF784
:10139000FBF8F07640F2CC04C2F2000440F21011E7
:1013A000C2F200012046402200F008F806F11C01BC
:1013B00020460122BDE8F041FFF788BE034690F8C1
:1013C0003D0020280AD100294FF0010018BF002A53
:1013D00000D1704793F83C00012801D102207047EA
:1013E0001962002021219A84DA84186483F83D1060
:1013F000196883F83C00CA6842F08002CA607047EE
:1014000070470000FEE70000FEE70000FEE7000076
:1014100070470000F0B581B041F20004C4F201044D
:10142000A4F50065284601210022FFF7B3F82846FD
:1014300002210122FFF7AEF8284640210022FFF7E3
:10144000A9F8284680210022FFF7A4F828464FF487
:1014500080710022FFF79EF828464FF400710022A9
:10146000FFF798F828464FF480610022FFF792F8C2
:1014700028464FF400610022FFF78CF828464FF40D
:1014800080510022FFF786F820464FF48061002249
:10149000FFF780F820464FF400610022FFF77AF84A
:1014A000204601210022FFF775F820460221002284
:1014B000FFF770F8204604210022FFF76BF8204662
:1014C00008210022FFF766F8204610210022FFF7CE
:1014D00061F8204620210022FFF75CF840F27007F7
:1014E000C2F20007F868C10740F08680810700F16A
:1014F0008C80410700F19280010700F19980C106BC
:1015000000F1A080810600F1A780410600F1AE80C5
:10151000010600F1B580C00500F1BC803869C10743
:1015200040F0C280810700F1C880410700F1CE8001
:10153000010700F1D480C10600F1DA80800604D5ED
:10154000204620210122FFF725F8204640210022D5
:10155000FFF720F8A4F5806630464FF40051FFF7FE
:1015600013F8387530464FF48041FFF70DF8787561
:1015700030460421FFF708F8B87530464FF4006193
:10158000FFF702F8F87530464FF48051FEF7FCFF84
:10159000387630464FF40041FEF7F6FF7876304655
:1015A0004021FEF7F1FFB87630468021FEF7ECFFD0
:1015B000F876284601210022FEF7ECFF2046402164
:1015C0000022FEF7E7FFB87EF97E800100EBC11034
:1015D000797E3A7E00EB4110FB7D00EB0210397DF5
:1015E0007A7DBF7D00EBC30000EB870000EB42007B
:1015F0000844C0B201B0F0BD284640210122FEF7E8
:10160000C9FFF86881077FF574AF28468021012261
:10161000FEF7C0FFF86841077FF56EAF28464FF42C
:1016200080710122FEF7B6FFF86801077FF567AF0A
:1016300028464FF400710122FEF7ACFFF868C1069E
:101640007FF560AF28464FF480610122FEF7A2FFCC
:10165000F86881067FF559AF28464FF400610122F2
:10166000FEF798FFF86841067FF552AF28464FF421
:1016700080510122FEF78EFFF86801067FF54BAF1F
:1016800020464FF480610122FEF784FFF868C00510
:101690007FF544AF20464FF400610122FEF77AFF48
:1016A0003869C1073FF43EAF204601210122FEF711
:1016B00071FF386981077FF538AF2046022101228A
:1016C000FEF768FF386941077FF532AF20460421F5
:1016D0000122FEF75FFF386901077FF52CAF204636
:1016E00008210122FEF756FF3869C1067FF526AFB3
:1016F000204610210122FEF74DFF386980067FF554
:1017000024AF1DE770470000FEF750BF7047000090
:10171000406A0021C185C184FFF7EEBA81B090F81C
:101720003E10222920D18368B3F5805F08D101697A
:10173000002941D000F128010A6803685B680AE0CB
:10174000014651F8282F13B90369002BF5D003681F
:101750005B6803F07F0313700A6801320A60C18D71
:1017600001390A04C18501D001B070470168CA6817
:1017700022F02002CA60CA6822F48072CA604A69F4
:1017800022F001024A61202280F83E20026B012AE9
:101790001CD100220263CB6823F01003CB600B68DE
:1017A000DB0605D500920A6800924968009100990D
:1017B000818D01B0FFF79EBA0168826A49686FF3B4
:1017C0005F2122F8021B8262C9E700BF01B0FFF768
:1017D000A9BC000040F2CC00C2F20000FFF78EBAB4
:1017E000FEE700002DE9F04188B007464FF6C4003F
:1017F00040F6000504901120C4F201050590002078
:101800000690022005F58064079004A92046FEF7A3
:10181000B1FD05F50066304640210022FEF7BAFE14
:10182000284601210122FEF7B5FE284602210122A9
:10183000FEF7B0FE284640210022FEF7ABFE284608
:1018400080210022FEF7A6FE28464FF48071002278
:10185000FEF7A0FE28464FF400710022FEF79AFE24
:1018600028464FF480610022FEF794FE28464FF48C
:1018700000610022FEF78EFE28464FF480510022C0
:10188000FEF788FE30464FF480610022FEF782FEAC
:1018900030464FF400610022FEF77CFE3046012105
:1018A0000022FEF777FE304602210022FEF772FE8C
:1018B000304604210022FEF76DFE3046082100224A
:1018C000FEF768FE304610210022FEF763FE304628
:1018D00020210022FEF75EFE40F27008C2F20008EE
:1018E000D8F80C00C10740F08D80810700F194808A
:1018F000410700F19B80010700F1A380C10600F1C0
:10190000AB80810600F1B380410600F1BB80010687
:1019100000F1C380C00500F1CB80D8F81000C107EA
:1019200040F0D180810700F1D880410700F1DF80CD
:10193000010700F1E680C10600F1ED80800604D5C4
:10194000304620210122FEF725FE284601210022F3
:101950004FF00008FEF71EFE284602210022FEF787
:1019600019FE07F0010220468021FEF713FEC7F39F
:10197000400220464021FEF70DFEC7F380022046BC
:101980004FF40041FEF706FEC7F3C00220464FF4B5
:101990008051FEF7FFFDC7F3001220464FF40061AF
:1019A000FEF7F8FDC7F3401220460421FEF7F2FDD2
:1019B000C7F3801220464FF48041FEF7EBFDFA0991
:1019C00020464FF40051FEF7E5FD28460121012293
:1019D000FEF7E0FD284602210122FEF7DBFD30463E
:1019E00040210022FEF7D6FD4FF6C400CDE90008E5
:1019F00069462046CDF80880FEF7BCFC08B0BDE87B
:101A0000F08100BF284640210122FEF7C3FDD8F82F
:101A10000C0081077FF56CAF284680210122FEF77C
:101A2000B9FDD8F80C0041077FF565AF28464FF4A3
:101A300080710122FEF7AEFDD8F80C0001077FF59A
:101A40005DAF28464FF400710122FEF7A3FDD8F8E0
:101A50000C00C1067FF555AF28464FF48061012286
:101A6000FEF798FDD8F80C0081067FF54DAF2846AB
:101A70004FF400610122FEF78DFDD8F80C004106FD
:101A80007FF545AF28464FF480510122FEF782FDD5
:101A9000D8F80C0001067FF53DAF30464FF4806169
:101AA0000122FEF777FDD8F80C00C0057FF535AFB1
:101AB00030464FF400610122FEF76CFDD8F81000AB
:101AC000C1073FF42FAF304601210122FEF762FD2E
:101AD000D8F8100081077FF528AF30460221012297
:101AE000FEF758FDD8F8100041077FF521AF3046CA
:101AF00004210122FEF74EFDD8F8100001077FF502
:101B00001AAF304608210122FEF744FDD8F8100034
:101B1000C1067FF513AF304610210122FEF73AFDD2
:101B2000D8F8100080067FF510AF09E790B0FEF7F7
:101B30004BFD00240120CDE90B44CDE9094406907A
:101B40000A904FF4E0104FF4803102250F9006A860
:101B5000CDE90714CDE90D51FEF7DCFE20B1EFF31E
:101B6000108072B6FEE700BF0F20CDE901054FF4EB
:101B70008060CDE9040401A802210394FEF7C2FDB0
:101B800020B1EFF3108072B6FEE700BF4FF0000BFC
:101B900041F21800CDF824B0C4F20200016841F20D
:101BA000000941F0100101600168C4F2010901F06F
:101BB000100101910199016840F6000441F02001F3
:101BC00001600168002201F0200101910199016882
:101BD000C4F2010441F004010160016840F67F464F
:101BE00001F0040101910199016841F008010160CF
:101BF000006840F67F4100F00800019001984846D7
:101C0000FEF7C8FC204641F6E3710022FEF7C2FC55
:101C1000A9F5806528464FF4E0610022FEF7BAFC82
:101C200040F200084FF40050C1F21108069008F588
:101C3000801006AFCDE9070B48463946FEF79AFB00
:101C4000069611264FF0020A48463946CDE9076B41
:101C5000CDF824A0FEF78EFB41F6C37006A981E8FB
:101C6000410820463946CDF824A0FEF783FB10201A
:101C700006A981E8010920463946FEF77BFB2020B2
:101C80000690012620463946CDE9076BCDF824A001
:101C9000FEF770FB4FF6C400CDE9060B2846394627
:101CA000CDF820B0FEF766FB4FF4E06006A981E8AE
:101CB000410828463946CDF824A0FEF75BFB80207A
:101CC00006A981E8010948463946FEF753FB0A2078
:101CD00000210022FEF7DAFC0A20FEF7C7FC1720DD
:101CE00000210022FEF7D2FC1720FEF7BFFC2820BF
:101CF00000210022FEF7CAFC2820FEF7B7FC40F2C4
:101D0000CC0044F20041C2F20000C4F200010C23F6
:101D10004FF4E13280E80608C0E903BBC0E9053BA7
:101D2000C0F81CB0FFF720F920B1EFF3108072B6B5
:101D3000FEE700BF40F27007C2F2000740F2CC009D
:101D40004EF2802607F11C01C2F2000001224FF082
:101D5000000ACEF20006FFF7B9F94FF61445CFF6A8
:101D6000FF754FF4807B4FF400084FF480690FE05B
:101D7000397A012000F02EF8797A022000F02AF852
:101D8000B97A042000F026F8F97A082000F022F849
:101D900038680028ECD0FEF703FC7968401AC9289F
:101DA000E6D380206051102060514FF40050605104
:101DB0002820C6F804B0C6F80080C6F80090FEF7E8
:101DC00055FC1720FEF752FC0A20FEF74FFCC7F81F
:101DD00000A0CDE770B540F60044C4F201040E4601
:101DE0000546CA0920464FF48071FEF7D3FB204612
:101DF0004FF400710122FEF7CDFB20464FF4007135
:101E00000022FEF7C7FBC6F3801220464FF4807114
:101E1000FEF7C0FB20464FF400710122FEF7BAFB2B
:101E200020464FF400710022FEF7B4FBC6F34012C7
:101E300020464FF48071FEF7ADFB20464FF4007151
:101E40000122FEF7A7FB20464FF400710022FEF7A7
:101E5000A1FBC6F3001220464FF48071FEF79AFBF7
:101E600020464FF400710122FEF794FB20464FF408
:101E700000710022FEF78EFBC6F3C00220464FF42D
:101E80008071FEF787FB20464FF400710122FEF7B8
:101E900081FB20464FF400710022FEF77BFBC6F366
:101EA000800220464FF48071FEF774FB20464FF409
:101EB00000710122FEF76EFB20464FF400710022F4
:101EC000FEF768FBC6F3400220464FF48071FEF730
:101ED00061FB20464FF400710122FEF75BFB2046B8
:101EE0004FF400710022FEF755FB06F00102204678
:101EF0004FF48071FEF74EFB20464FF40071012233
:101F0000FEF748FB20464FF400710022FEF742FB2B
:101F1000EA0920464FF48071FEF73CFB20464FF45F
:101F200000710122FEF736FB20464FF400710022BB
:101F3000FEF730FBC5F3801220464FF48071FEF7A8
:101F400029FB20464FF400710122FEF723FB2046B7
:101F50004FF400710022FEF71DFBC5F3401220462E
:101F60004FF48071FEF716FB20464FF400710122FA
:101F7000FEF710FB20464FF400710022FEF70AFB2B
:101F8000C5F3001220464FF48071FEF703FB204694
:101F90004FF400710122FEF7FDFA20464FF4007164
:101FA0000022FEF7F7FAC5F3C00220464FF4807115
:101FB000FEF7F0FA20464FF400710122FEF7EAFA2C
:101FC00020464FF400710022FEF7E4FAC5F38002C8
:101FD00020464FF48071FEF7DDFA20464FF4007181
:101FE0000122FEF7D7FA20464FF400710022FEF7D7
:101FF000D1FAC5F3400220464FF48071FEF7CAFAC9
:1020000020464FF400710122FEF7C4FA20464FF437
:1020100000710022FEF7BEFA05F0010220464FF4DF
:102020008071FEF7B7FA20464FF400710122FEF7E7
:10203000B1FA20464FF400710022FEF7ABFA2046B9
:102040004FF480610122FEF7A5FA20464FF480612B
:102050000022BDE87040FEF79DBA010200000000BA
:102060000000000001020304060708090000000048
:102070000102030402030405060708090A0B0C0DFC
:102080000E0F1010A8200008000000201000000013
:1020900028010008B82000081000002048070000B0
:1020A00044010008000000000100000010000000D2
:0820B0000024F4000000000010
:04000005080000ED02
:00000001FF
