:020000040800F2
:10000000F00600208901000801100008F90F00081F
:10001000FD0F0008450200087913000800000000E9
:10002000000000000000000000000000BD120008F9
:1000300049020008000000000510000871130008C4
:10004000A3010008A3010008A3010008A301000800
:10005000A3010008A3010008A3010008A3010008F0
:10006000A3010008A301000855020008A30100082D
:10007000A3010008A3010008A3010008A3010008D0
:10008000A3010008A3010008A3010008A3010008C0
:10009000A3010008A3010008A30100085D020008F5
:1000A000A3010008A3010008A3010008A3010008A0
:1000B000A3010008A3010008A3010008A301000890
:1000C000A3010008A3010008A3010008A301000880
:1000D000A3010008A3010008A3010008A301000870
:1000E0004D020008A3010008A301000800F002F877
:1000F00000F03AF80AA090E8000C82448344AAF188
:100100000107DA4501D100F02FF8AFF2090EBAE885
:100110000F0013F0010F18BFFB1A43F0010318473B
:10012000E417000004180000103A24BF78C878C112
:10013000FAD8520724BF30C830C144BF04680C60ED
:10014000704700000023002400250026103A28BF35
:1001500078C1FBD8520728BF30C148BF0B60704739
:100160001FB51FBD10B510BD00F031F81146FFF7E7
:10017000F7FF01F08BFA00F04FF803B4FFF7F2FF3E
:1001800003BC00F057F800000948804709480047C1
:10019000FEE7FEE7FEE7FEE7FEE7FEE7FEE7FEE737
:1001A000FEE7FEE704480549054A064B7047000094
:1001B00075130008ED000008F0000020F006002094
:1001C000F0020020F002002070477047704775462B
:1001D00000F02CF8AE4605006946534620F00700B3
:1001E000854618B020B5FFF7DDFFBDE820404FF091
:1001F00000064FF000074FF000084FF0000BAC4630
:10020000ACE8C009ACE8C009ACE8C009ACE8C0097A
:1002100021F007018D46704710B50446AFF300800A
:100220002046BDE81040FFF7A8BF00000048704717
:100230001000002001491820ABBEFEE72600020096
:1002400070470000FEE70000704700004FF40050C8
:1002500000F070B8102000F06DB80000802000F0B1
:1002600069B80000B0B5044600F086F9054640F2D2
:100270000000C2F200000078611C18BF044400BFF7
:1002800000F07AF9401BA042FAD3B0BD10B540F29D
:1002900070041028C2F200042AD0B0F5005F19D013
:1002A000802818BF10BD282000F0CCF9172000F0DE
:1002B000C9F90A2000F0C6F92069411E0028216111
:1002C0002DDCE1683F202061481EB8BF40F2FF10DE
:1002D00024E000BF282000F0B5F9172000F0B2F9A3
:1002E0000A2000F0AFF9002001F048F81BE000BF41
:1002F000282000F0A7F9172000F0A4F90A2000F048
:10030000A1F92069411C3F28216108DBE168002038
:100310002061481CB1F5FF7FC8BF0020E06000F0FD
:1003200073FE00F0CDFF0120206000F025F9606031
:1003300010BD000040F21441C4F201010A680242FB
:1003400014BF08607047FFF7A1BF00002DE9F04F10
:1003500082B041F20042C4F201020E6804239042CE
:1003600008BF0323002E009300F0F68040F20C4EED
:100370004FF6FF7CC4F2010E00220124C1F2100CE2
:100380004FF0000A4FF0000943E000BF012502F0E2
:100390000C040F27A7402BEA070705FA04F43C4397
:1003A00043F82640D1F804B040F20045C4F20105FC
:1003B0005FEACB332B6854BF23EA080343EA080300
:1003C0002B606B685FEA8B3454BF23EA080343EA6F
:1003D00008036B605FEACB24AB6854BF23EA0803D1
:1003E00043EA08035FEA8B24AB60DEF800304FF08D
:1003F000010454BF23EA080343EA0803CEF800309F
:100400000E680AF1010A36FA0AF302F1040200F05A
:10041000A38004FA0AF816EA080FF1D04B68634586
:1004200012DC122B56D8DFE803F0350B4549555541
:1004300055555555555555555555554D510000BFB8
:10044000D1F80C9046E000BF4FF6FF77C1F22107CC
:10045000BB420FDC0027C1F21107BB421AD00027B4
:10046000C1F21207BB4215D00027C1F22107BB42DF
:1004700010D02FE00027C1F22207BB420AD000278C
:10048000C1F23107BB4205D00027C1F23207BB429F
:1004900020D100BF8B684BB1012B14BFC0F8148072
:1004A000C0F810804FF0080914E000BF4FF00409B5
:1004B00010E000BFCB6803F108090BE04FF0000922
:1004C00008E000BFCB6803F1040903E0CB6803F147
:1004D0000C0900BF13460546BAF1080F24BF203BA4
:1004E00004352E680F279F40BE4309FA03F33343B8
:1004F0002B60CB79DB067FF583AF41F21804C4F2A1
:10050000020423684FEA9A0643F00103236023683C
:1005100040F6000403F001030193019B40F2004305
:10052000C4F20103A3F57E7353F826B0C4F20104AC
:10053000A0420FD040F60044C4F20104A0423FF4B0
:1005400025AF41F20004C4F20104009DA04208BF9F
:1005500002251CE700251AE702B0BDE8F08F000075
:100560008068084018BF012070470000002A08BFBB
:10057000090401617047000040F2E800C2F2000087
:100580000068704740F2000040F2E801C2F200004B
:10059000C2F2000100780A68104408607047000049
:1005A00080B542F20000C4F20200016841F010017F
:1005B0000160032000F096F8002000F005F800F03C
:1005C00027F8002080BD000070B540F20006C2F29E
:1005D000000640F208013278C2F200014FF47A734B
:1005E0000968B3FBF2F20446B1FBF2F1084600F0F1
:1005F0006BFB0F2C4FF0010508D838B94FF0FF30D6
:1006000021460022002500F041F87460284670BDA4
:1006100082B041F21800C4F20200016841F0010109
:100620000160016801F0010101910199416841F007
:1006300080514160406800F080500090009802B006
:1006400070470000002848BF704700F01F010122DA
:1006500002FA01F14EF280124009CEF2000242F895
:100660002010BFF34F8FBFF36F8F7047002848BF34
:10067000704700F01F01012202FA01F14EF2001250
:100680004009CEF2000242F82010704710B54EF635
:100690000C5CCEF2000CDCF80030C3F3022E8EF0BE
:1006A0000704042C28BF0424BEF103034FF0FF3ECF
:1006B0000EFA04F438BF0023A14399400EFA03F365
:1006C0009A43114300F00F02043A624409010C32CC
:1006D00000F16043B0F1FF3FC8BF03F56442117001
:1006E00010BD00004EF60C51CEF200010A684FF624
:1006F000FF031A4060F30A2242F0806040F0FD7070
:10070000086070472DE9F04381B0002800F0858033
:1007100042F20008C4F202080446D8F800000D4670
:1007200000F0070088420CD2D8F8000020F0070043
:100730002843C8F80000D8F8000000F00700A842DD
:100740006BD1206841F204098107C4F2020917D570
:10075000410705D5D9F8001041F4E061C9F800104F
:10076000010705D5D9F8001041F46051C9F800100F
:10077000D9F80010A26821F0F0011143C9F8001067
:10078000C00741D1D8F8000000F00700A8420CD9FA
:10079000D8F8000020F007002843C8F80000D8F877
:1007A000000000F00700A84237D12068410707D5B4
:1007B000D9F80010E26821F4E0611143C9F8001093
:1007C000000708D5D9F80000216920F4605040EAFC
:1007D000C100C9F80000D9F8002002F00C00082878
:1007E00041F20020C0F27A0050D141F6F203C2F388
:1007F0008341C0F60003595CD2033BD440F600109D
:10080000C0F23D00484341E0606802280AD0012858
:100810002AD159F8041C890308D4012001B0BDE88D
:10082000F08300BF59F8041C8901F6D5D9F80010EF
:1008300021F003010843C9F80000FFF79DFE0646BA
:1008400041F28837D9F80000616800F00C00B0EB85
:10085000810F97D0FFF790FE801BB842F2D903209A
:1008600001B0BDE8F08300BF59F8041C8907D4D556
:10087000DCE700BFD9F8002041F6D803C2F34042BC
:10088000C0F600039A5C4843B0FBF2F0D9F80010C0
:1008900041F6DA02C1F30311C0F60002515C40F2E6
:1008A000080220FA01F140F20400C2F200000068E0
:1008B000C2F200021160FFF787FE002001B0BDE820
:1008C000F083000040F2080041F20401C2F200008F
:1008D000C4F202010068096841F6EA02C1F302218C
:1008E000C0F60002515CC8407047000040F20800AA
:1008F00041F20401C2F20000C4F20201006809687A
:1009000041F6EA02C1F3C221C0F60002515CC840C0
:10091000704700002DE9F04182B0002868D00446FD
:10092000007841F20006C007C4F2020625D07068C4
:1009300000F00C0004281BD0706800F00C000828A0
:1009400002D17068C00313D46068002800F0688189
:10095000B0F5A02F00F07C81B0F5803F00F07C81E5
:10096000306820F480303060306820F4802076E1F8
:100970003068800301D56068D0B32078800718D52F
:10098000706810F00C0F07D0706800F00C00082899
:100990006ED17068C0036BD43068800702D52069BF
:1009A000012825D13068616920F0F80040EAC100D3
:1009B0003060207800071FD42078400732D4E569E2
:1009C00095B1706800F00C00082840F08F80012D70
:1009D0000ED07068216A00F480328A4208D1616AC0
:1009E00000F47010884203D1002002B0BDE8F0810D
:1009F000012002B0BDE8F081A069002862D000208B
:100A0000C4F242200121C0F88014FFF7B5FD05466D
:100A1000706A800700F18C80FFF7AEFD401B022852
:100A2000F6D92AE1F06910F0805808D1F06940F059
:100A30008050F061F06900F080500090009847F21B
:100A40000007C4F200073868C00529D4386840F4AC
:100A500080703860FFF790FD054600BF3868C0051C
:100A60001ED4FFF789FD401B6428F7D905E100BFBC
:100A70002069002840F20000C4F2422000F0828089
:100A800001210160FFF778FD054600BF306880074F
:100A90003FF588AFFFF770FD401B0228F6D9ECE068
:100AA000E068002800F08080052800F09780012889
:100AB00000F09880306A20F001003062306A20F047
:100AC000040092E00020C4F242200021C0F880140B
:100AD000FFF752FD054600BF706A80077FF56CAFD7
:100AE000FFF74AFD401B0228F6D9C6E00027C4F2F2
:100AF000422700203866FFF73FFD022D05460BD147
:100B00003068800140F1BE80FFF736FD401B0228AF
:100B10004FF00300F4D968E7306880017FF564AFD7
:100B2000FFF72AFD401B02284FF00300F4D95CE7D1
:100B300040F20800C2F20000006844F6D351C1F24E
:100B40006201A0FB0101480A019000BF00BF0198AB
:100B5000411E002801913FF42FAF00BF0198411EB4
:100B6000002801913FF428AF00BF0198411E0028E2
:100B700001913FF421AF00BF0198411E002801916F
:100B8000E4D119E700210160FFF7F6FC054600BF3C
:100B9000306880077FF50DAFFFF7EEFC401B0228A1
:100BA0004FF00300F4D920E7306A20F001003062F2
:100BB000306A20F004003062FFF7DEFC054641F2A7
:100BC000883700BF306A800720D5FFF7D5FC401B6F
:100BD000B8424FF00300F5D907E700BF306A40F094
:100BE00004003062306A40F001003062FFF7C4FC5C
:100BF000054641F2883700BF306A800706D4FFF708
:100C0000BBFC401BB842F7D937E000BFB8F1000F7A
:100C10007FF4D5AEF06920F08050F061CFE600BFE0
:100C2000306820F480303060306820F480203060FC
:100C3000FFF7A2FC054600BF306880037FF59DAE3C
:100C4000FFF79AFC401B64284FF00300F4D9CCE670
:100C5000306840F480203060306840F4803030608C
:100C6000FFF78AFC054600BF306880033FF585AE7C
:100C7000FFF782FC401B6428F6D9032002B0BDE8D0
:100C8000F08100BF206AB0F5803F05D17168A2688D
:100C900021F40031114371607168626A21F47411AA
:100CA00010430843706001203866FFF765FC044676
:100CB000306880013FF598AEFFF75EFC001B02280C
:100CC0004FF00300F4D990E6411E0020B0EB116F05
:100CD0001CBF012070474EF21002CEF2000251609C
:100CE0004EF62351CEF20001F0230B7007219060E5
:100CF00011607047002804BF0120704710B50446FA
:100D000090F83D0028B9002084F83C00204600F00F
:100D10005FF8242084F83D002068D4E90212C368FB
:100D200023F40053C360036923F440531A43026160
:100D3000D4E904231143C268194341F20C639A4376
:100D40001143C1604169A26921F44071114343F626
:100D50000002C4F201029042416103D0FFF7B2FDEC
:100D600002E000BFFFF7C2FD62681921484391000D
:100D7000B0FBF1F048F21F51C5F2EB11A0FB0123CB
:100D80005A096FF0630302FB0300322303EB0010E8
:100D9000A0FB0101F02303EA5113206803EB0212C8
:100DA000C1F3431111448160016921F49041016153
:100DB000416921F02A014161C16841F40051C160DB
:100DC00000202021206484F83D1084F83E1010BDDE
:100DD00070B586B040F60004C4F201040068A4F5C2
:100DE000444100268842049602D006B070BD00BF80
:100DF00041F21800C4F20200416802AD41F4003132
:100E00004160416801F4003101910199016841F0AC
:100E1000040101600068294600F004000190019877
:100E20000420029002200390032005902046FFF743
:100E30008DFA0820CDE90206204629460496FFF7E0
:100E400085FA06B070BD00002DE9F04381B004467C
:100E500090F83D0020280DD10F4600294FF00100E9
:100E600000F092801646002A00F08E8094F83C0034
:100E7000012803D1022001B0BDE8F083012084F8ED
:100E80003C004FF0000921201D46C4F8409084F832
:100E90003D00FFF771FBA684E684A1688046B1F5AA
:100EA000805F25D1206900281CBF38464F463E464A
:100EB000074684F83C90E08C00B3681C20D0002DDD
:100EC00066D120680BE000BF36F8021B00276FF3E5
:100ED0005F214160E18C0139E184E18C81B30168DB
:100EE000090675D5002FEFD017F8011BF1E700BFF9
:100EF000002684F83C90E08C0028DED120681FE0BA
:100F0000206802E00168090609D40168090606D4D0
:100F1000016809065CBF01685FEA0161F2D51FB193
:100F200017F8011B05E000BF36F8021B00276FF31E
:100F30005F214160E18C0139E184E18C0029E4D139
:100F4000016849061CD4002D42D0691C0ED10168ED
:100F5000490615D4016849065CBF01685FEA416132
:100F60000ED401684906F2D50AE000BFFFF704FB82
:100F7000A0EB08012068A9422AD800684006F5D5F0
:100F8000202084F83D00002001B0BDE8F08300BFC0
:100F9000206800BF0168090608D4FFF7EDFAA0EB4E
:100FA00008012068A942F5D912E000BF17B117F86F
:100FB000011B04E036F8021B00276FF35F2141603C
:100FC000E18C0139E184E18C0029E3D1B8E700BF6D
:100FD000C16821F4D071C160416921F00101416112
:100FE000202084F83D0084F83E00002084F83C0076
:100FF000032001B0BDE8F083FEE70000FEE700003B
:10100000FEE700007047000070B540F60004C4F22F
:101010000104204601210022FFF7A8FA2046022100
:101020000122FFF7A3FA204640210022FFF79EFA93
:10103000204680210022FFF799FA20464FF4807164
:101040000022FFF793FA20464FF400710022FFF7C9
:101050008DFA20464FF480610022FFF787FA204680
:101060004FF400610022FFF781FA20464FF48051CF
:101070000022FFF77BFA04F5006528464FF48061F3
:101080000022FFF773FA28464FF400610022FFF7B1
:101090006DFA284601210022FFF768FA284602214E
:1010A0000022FFF763FA284604210022FFF75EFAC8
:1010B000284608210022FFF759FA2846102100226D
:1010C000FFF754FA284620210022FFF74FFA40F29A
:1010D0007006C2F20006F068C1076BD1810771D4B7
:1010E000410777D4010700F17F80C10600F18680B7
:1010F000810600F18D80410600F19480010600F127
:101100009B80C00500F1A2803069C10740F0A88033
:10111000810700F1AE80410700F1B480010700F1C2
:10112000BA80C10600F1C080800604D5284620217F
:101130000122FFF71BFA284640210022FFF716FA8A
:1011400004F5806528464FF40051FFF709FA7061F5
:1011500028464FF48041FFF703FAB0612846042186
:10116000FFF7FEF9F06128464FF40061FFF7F8F948
:10117000306228464FF48051FFF7F2F9706228463A
:101180004FF40041FFF7ECF9B06228464021FFF729
:10119000E7F9F06228468021FFF7E2F9316A30630F
:1011A000012918BF70BD204620210122BDE87040F2
:1011B000FFF7DCB9204640210122FFF7D7F9F0689C
:1011C00081078DD5204680210122FFF7CFF9F068F5
:1011D000410787D520464FF480710122FFF7C6F9F9
:1011E000F06801077FF581AF20464FF400710122BE
:1011F000FFF7BCF9F068C1067FF57AAF20464FF4DF
:1012000080610122FFF7B2F9F06881067FF573AFC4
:1012100020464FF400610122FFF7A8F9F06841066B
:101220007FF56CAF20464FF480510122FFF79EF905
:10123000F06801067FF565AF28464FF48061012212
:10124000FFF794F9F068C0057FF55EAF28464FF4CC
:1012500000610122FFF78AF93069C1073FF458AFF6
:10126000284601210122FFF781F9306981077FF5C6
:1012700052AF284602210122FFF778F93069410771
:101280007FF54CAF284604210122FFF76FF9306942
:1012900001077FF546AF284608210122FFF766F9CE
:1012A0003069C1067FF540AF284610210122FFF7C3
:1012B0005DF9306980067FF53EAF37E77047000083
:1012C00040F27000C2F200008169012906D079B9AC
:1012D000416949B101290BD1CF2108E0416929B108
:1012E000012905D1C92102E0FF2100E0F9210172A5
:1012F000016A39B101290FD1C169012908D059B951
:10130000F92108E0C169012904D029B9FF2102E0CF
:10131000C92100E0CF214172816A39B101290FD181
:10132000416A012908D059B9F92108E0416A012927
:1013300004D029B9FF2102E0C92100E0CF21817248
:10134000016B39B1012911D1C16A01290AD069B9EA
:10135000F9210AE0C16A012906D0002918BF7047A7
:10136000FF2102E0C92100E0CF21C17270470000D7
:10137000FFF708B970470000FEE700002DE9F041D3
:1013800088B040F60005C4F2010505F5006420466A
:1013900040210022FFF7EAF8284601210122FFF749
:1013A000E5F8284602210122FFF7E0F8284640210F
:1013B0000022FFF7DBF8284680210022FFF7D6F84D
:1013C00028464FF480710022FFF7D0F828464FF4EA
:1013D00000710022FFF7CAF828464FF4806100220E
:1013E000FFF7C4F828464FF400610022FFF7BEF86B
:1013F00028464FF480510022FFF7B8F820464FF4FA
:1014000080610022FFF7B2F820464FF4006100220D
:10141000FFF7ACF8204601210022FFF7A7F820468D
:1014200002210022FFF7A2F8204604210022FFF744
:101430009DF8204608210022FFF798F82046102149
:101440000022FFF793F8204620210022FFF78EF8B4
:1014500040F27006C2F20006F068C10740F09080CA
:10146000810700F19680410700F19C80010700F19F
:10147000A380C10600F1AA80810600F1B180410677
:1014800000F1B880010600F1BF80C00500F1C68000
:101490003069C10740F0CC80810700F1D28041075C
:1014A00000F1D880010700F1DE80C10600F1E48080
:1014B000800604D5204620210122FFF757F811208D
:1014C0000590022005F580664FF6C40800270790B6
:1014D00004A93046CDF810800697FEF737FF28465E
:1014E00001210022FFF742F8284602210022FFF7DF
:1014F0003DF830464FF400510122FFF737F83046EF
:101500004FF480410122FFF731F8304604210122D7
:10151000FFF72CF830464FF400610122FFF726F860
:1015200030464FF480510122FFF720F830464FF447
:1015300000410122FFF71AF8304640210122FFF74F
:1015400015F8304680210122FFF710F828460121C6
:101550000122FFF70BF8284602210122FFF706F8C7
:10156000204640210022FFF701F869463046CDE9C8
:1015700000870297FEF7EAFE08B0BDE8F08100BFE1
:10158000284640210122FEF7F1FFF06881077FF530
:101590006AAF284680210122FEF7E8FFF068410784
:1015A0007FF564AF28464FF480710122FEF7DEFF1D
:1015B000F06801077FF55DAF28464FF40071012206
:1015C000FEF7D4FFF068C1067FF556AF28464FF40A
:1015D00080610122FEF7CAFFF06881067FF54FAFF8
:1015E00028464FF400610122FEF7C0FFF068410673
:1015F0007FF548AF28464FF480510122FEF7B6FF31
:10160000F06801067FF541AF20464FF4806101226A
:10161000FEF7ACFFF068C0057FF53AAF20464FF407
:1016200000610122FEF7A2FF3069C1073FF434AF29
:10163000204601210122FEF799FF306981077FF5DD
:101640002EAF204602210122FEF790FF30694107AC
:101650007FF528AF204604210122FEF787FF30697D
:1016600001077FF522AF204608210122FEF77EFF09
:101670003069C1067FF51CAF204610210122FEF71C
:1016800075FF306980067FF51AAF13E790B0FEF75B
:1016900087FF00240120CDE90B44CDE909440A90DD
:1016A00010200B904FF4601002250F9006A8CDE992
:1016B00007440695CDE90D54FFF72CF920B1EFF35F
:1016C000108072B6FEE700BF0F20CDE901054FF490
:1016D0008060CDE9040401A802210394FFF712F809
:1016E00020B1EFF3108072B6FEE700BF002441F294
:1016F00018000994C4F20200016840F6000841F0A5
:10170000100101600168C4F2010801F010010191AB
:101710000199016808F5006541F020010160016848
:10172000002201F0200101910199016840F67F4BF0
:1017300041F004010160016801F004010191019987
:10174000016841F008010160006840F67F4100F047
:101750000800019001982846FEF708FF404641F630
:10176000E3710022FEF702FF08F5806630464FF471
:10177000E0610022FEF7FAFE40F200094FF400504B
:10178000C1F21109069009F5801006AFCDE90704F2
:1017900028463946FEF7DAFDCDF818B04FF0110AA9
:1017A0004FF0020B28463946CDE907A4CDF824B006
:1017B000FEF7CCFD41F6C370CDE9060A4046394636
:1017C000CDE9084BFEF7C2FD1020CDE906094046E1
:1017D00039460894FEF7BAFD202006904FF0010A22
:1017E00040463946CDE907A4CDF824B0FEF7AEFD5A
:1017F0004FF6C400CDE90604304639460894FEF79A
:10180000A5FD4FF4E060CDE9060A30463946CDE942
:10181000084BFEF79BFD8020CDE906092846394696
:101820000894FEF793FD0A2000210022FEF72EFF08
:101830000A20FEF71BFF172000210022FEF726FFDB
:101840001720FEF713FF282000210022FEF71EFFBD
:101850002820FEF70BFF40F2A400A8F54441C2F295
:1018600000000C234FF4E13280E81600C0E9034485
:10187000C0E90534C461FFF73DFA28B1EFF31080E9
:1018800072B600BFFEE700BF0EA0DFF83880D0E9D7
:101890000176D0E9034540F2A409C2F200090DF136
:1018A000180A00BF4846514612220A23CDE906878E
:1018B000CDE908640A95FFF7C7FA4FF47A70FEF78E
:1018C000D1FCEFE748656C6C6F20576F726C642039
:1018D0002121210D0A00000001020000000000008B
:1018E00000000102030406070809000000000102CD
:1018F000030402030405060708090A0B0C0D0E0F6A
:10190000101000002819000800000020100000003E
:10191000280100083819000810000020E006000027
:101920004401000800000000010000001000000059
:081930000024F4000000000097
:04000005080000ED02
:00000001FF
