:020000040800F2
:100000005807002089010008CD120008C512000819
:10001000C91200084502000851170008000000003E
:10002000000000000000000000000000C5150008EE
:100030004902000800000000D112000879160008EB
:10004000A3010008A3010008A3010008A301000800
:10005000A3010008A3010008A3010008A3010008F0
:10006000A3010008A301000855020008A30100082D
:10007000A3010008A3010008A3010008A3010008D0
:10008000A3010008A3010008A3010008A3010008C0
:10009000A3010008A3010008A30100085D020008F5
:1000A000A3010008A3010008A3010008A3010008A0
:1000B000A3010008A3010008A3010008A301000890
:1000C000A3010008A3010008A3010008A301000880
:1000D000A3010008A301000845170008A3010008B8
:1000E0004D020008A3010008A301000800F002F877
:1000F00000F03AF80AA090E8000C82448344AAF188
:100100000107DA4501D100F02FF8AFF2090EBAE885
:100110000F0013F0010F18BFFB1A43F0010318473B
:10012000B01E0000D01E0000103A24BF78C878C16D
:10013000FAD8520724BF30C830C144BF04680C60ED
:10014000704700000023002400250026103A28BF35
:1001500078C1FBD8520728BF30C148BF0B60704739
:100160001FB51FBD10B510BD00F031F81146FFF7E7
:10017000F7FF01F081FC00F04FF803B4FFF7F2FF46
:1001800003BC00F057F800000948804709480047C1
:10019000FEE7FEE7FEE7FEE7FEE7FEE7FEE7FEE737
:1001A000FEE7FEE704480549054A064B7047000094
:1001B0007D160008ED0000085801002058070020B7
:1001C0005803002058030020704770477047754659
:1001D00000F02CF8AE4605006946534620F00700B3
:1001E000854618B020B5FFF7DDFFBDE820404FF091
:1001F00000064FF000074FF000084FF0000BAC4630
:10020000ACE8C009ACE8C009ACE8C009ACE8C0097A
:1002100021F007018D46704710B50446AFF300800A
:100220002046BDE81040FFF7A8BF00000048704717
:100230001000002001491820ABBEFEE72600020096
:1002400070470000FEE70000704700004FF40050C8
:1002500000F0C8B8102000F0C5B80000802000F001
:10026000C1B80000014690F82100022816D10868A4
:10027000D1E90FC3026822F00E020260026822F088
:1002800001020260012000FA03F2CCF8042081F898
:1002900021000020002281F820207047042088637C
:1002A0000120002281F820207047000080B590F8DE
:1002B0002110022924D10268116821F00E01116079
:1002C0002F211368C4F202018A4240F20401C4F2F1
:1002D000020123F00103136016DD3023C4F2020390
:1002E0009A421DD04423C4F202039A421CD05823E0
:1002F000C4F202039A421DD14FF4803322E000BFC2
:1003000004218163012080BD0823C4F202039A42C4
:100310000ED01C23C4F202039A420BD1102311E029
:100320004FF480730EE000BF4FF480530AE000BF2B
:10033000012307E001F1680C4FF08073624508BFAC
:100340004FF480130B60416B4FF48072028401B153
:100350008847002080BD0000B0B50446282000F08A
:10036000C9F9172000F0C6F90A2000F0C3F940F2DD
:100370007005102CC2F2000516D0B4F5005F27D02E
:10038000802C28D12869411E0028296107DCE968F2
:100390003F202861481EB8BF40F2FF10E86000F01F
:1003A00099FF01F011F916E02869411C3F282961E5
:1003B00008DBE96800202861481CB1F5FF7FC8BF51
:1003C0000020E86000F086FF01F0FEF803E000BFC7
:1003D000FF2001F0BFF90120286000F025F96860D6
:1003E000B0BD000040F21441C4F201010A680242AB
:1003F00014BF08607047FFF7AFBF00002DE9F04F52
:1004000082B041F20042C4F201020E68042390421D
:1004100008BF0323002E009300F0F68040F20C4E3C
:100420004FF6FF7CC4F2010E00220124C1F2100C31
:100430004FF0000A4FF0000943E000BF012502F031
:100440000C040F27A7402BEA070705FA04F43C43E6
:1004500043F82640D1F804B040F20045C4F201054B
:100460005FEACB332B6854BF23EA080343EA08034F
:100470002B606B685FEA8B3454BF23EA080343EABE
:1004800008036B605FEACB24AB6854BF23EA080320
:1004900043EA08035FEA8B24AB60DEF800304FF0DC
:1004A000010454BF23EA080343EA0803CEF80030EE
:1004B0000E680AF1010A36FA0AF302F1040200F0AA
:1004C000A38004FA0AF816EA080FF1D04B686345D6
:1004D00012DC122B56D8DFE803F0350B4549555591
:1004E00055555555555555555555554D510000BF08
:1004F000D1F80C9046E000BF4FF6FF77C1F221071C
:10050000BB420FDC0027C1F21107BB421AD0002703
:10051000C1F21207BB4215D00027C1F22107BB422E
:1005200010D02FE00027C1F22207BB420AD00027DB
:10053000C1F23107BB4205D00027C1F23207BB42EE
:1005400020D100BF8B684BB1012B14BFC0F81480C1
:10055000C0F810804FF0080914E000BF4FF0040904
:1005600010E000BFCB6803F108090BE04FF0000971
:1005700008E000BFCB6803F1040903E0CB6803F196
:100580000C0900BF13460546BAF1080F24BF203BF3
:1005900004352E680F279F40BE4309FA03F3334307
:1005A0002B60CB79DB067FF583AF41F21804C4F2F0
:1005B000020423684FEA9A0643F00103236023688C
:1005C00040F6000403F001030193019B40F2004355
:1005D000C4F20103A3F57E7353F826B0C4F20104FC
:1005E000A0420FD040F60044C4F20104A0423FF400
:1005F00025AF41F20004C4F20104009DA04208BFEF
:1006000002251CE700251AE702B0BDE8F08F0000C4
:100610008068084018BF012070470000002A08BF0A
:10062000090401617047000040F25010C2F200005E
:100630000068704740F2000040F25011C2F2000022
:10064000C2F2000100780A68104408607047000098
:1006500080B542F20000C4F20200016841F01001CE
:100660000160032000F096F8002000F005F800F08B
:1006700027F8002080BD000070B540F20006C2F2ED
:10068000000640F208013278C2F200014FF47A739A
:100690000968B3FBF2F20446B1FBF2F1084600F040
:1006A0006BFB0F2C4FF0010508D838B94FF0FF3025
:1006B00021460022002500F041F87460284670BDF4
:1006C00082B041F21800C4F20200016841F0010159
:1006D0000160016801F0010101910199416841F057
:1006E00080514160406800F080500090009802B056
:1006F00070470000002848BF704700F01F0101222A
:1007000002FA01F14EF280124009CEF2000242F8E4
:100710002010BFF34F8FBFF36F8F7047002848BF83
:10072000704700F01F01012202FA01F14EF200129F
:100730004009CEF2000242F82010704710B54EF684
:100740000C5CCEF2000CDCF80030C3F3022E8EF00D
:100750000704042C28BF0424BEF103034FF0FF3E1E
:100760000EFA04F438BF0023A14399400EFA03F3B4
:100770009A43114300F00F02043A624409010C321B
:1007800000F16043B0F1FF3FC8BF03F56442117050
:1007900010BD00004EF60C51CEF200010A684FF673
:1007A000FF031A4060F30A2242F0806040F0FD70BF
:1007B000086070472DE9F04381B0002800F0858083
:1007C00042F20008C4F202080446D8F800000D46C0
:1007D00000F0070088420CD2D8F8000020F0070093
:1007E0002843C8F80000D8F8000000F00700A8422D
:1007F0006BD1206841F204098107C4F2020917D5C0
:10080000410705D5D9F8001041F4E061C9F800109E
:10081000010705D5D9F8001041F46051C9F800105E
:10082000D9F80010A26821F0F0011143C9F80010B6
:10083000C00741D1D8F8000000F00700A8420CD949
:10084000D8F8000020F007002843C8F80000D8F8C6
:10085000000000F00700A84237D12068410707D503
:10086000D9F80010E26821F4E0611143C9F80010E2
:10087000000708D5D9F80000216920F4605040EA4B
:10088000C100C9F80000D9F8002002F00C000828C7
:1008900041F20020C0F27A0050D141F6C073C2F399
:1008A0008341C0F60003595CD2033BD440F60010EC
:1008B000C0F23D00484341E0606802280AD00128A8
:1008C0002AD159F8041C890308D4012001B0BDE8DD
:1008D000F08300BF59F8041C8901F6D5D9F800103F
:1008E00021F003010843C9F80000FFF79DFE06460A
:1008F00041F28837D9F80000616800F00C00B0EBD5
:10090000810F97D0FFF790FE801BB842F2D90320E9
:1009100001B0BDE8F08300BF59F8041C8907D4D5A5
:10092000DCE700BFD9F8002041F6A673C2F34042CD
:10093000C0F600039A5C4843B0FBF2F0D9F800100F
:1009400041F6A872C1F30311C0F60002515C40F2F7
:10095000080220FA01F140F20400C2F2000000682F
:10096000C2F200021160FFF787FE002001B0BDE86F
:10097000F083000040F2080041F20401C2F20000DE
:10098000C4F202010068096841F6B872C1F302219D
:10099000C0F60002515CC8407047000040F20800F9
:1009A00041F20401C2F20000C4F2020100680968C9
:1009B00041F6B872C1F3C221C0F60002515CC840D2
:1009C000704700002DE9F04182B0002868D004464D
:1009D000007841F20006C007C4F2020625D0706814
:1009E00000F00C0004281BD0706800F00C000828F0
:1009F00002D17068C00313D46068002800F06881D9
:100A0000B0F5A02F00F07C81B0F5803F00F07C8134
:100A1000306820F480303060306820F4802076E147
:100A20003068800301D56068D0B32078800718D57E
:100A3000706810F00C0F07D0706800F00C000828E8
:100A40006ED17068C0036BD43068800702D520690E
:100A5000012825D13068616920F0F80040EAC10022
:100A60003060207800071FD42078400732D4E56931
:100A700095B1706800F00C00082840F08F80012DBF
:100A80000ED07068216A00F480328A4208D1616A0F
:100A900000F47010884203D1002002B0BDE8F0815C
:100AA000012002B0BDE8F081A069002862D00020DA
:100AB000C4F242200121C0F88014FFF7B5FD0546BD
:100AC000706A800700F18C80FFF7AEFD401B0228A2
:100AD000F6D92AE1F06910F0805808D1F06940F0A9
:100AE0008050F061F06900F080500090009847F26B
:100AF0000007C4F200073868C00529D4386840F4FC
:100B000080703860FFF790FD054600BF3868C0056B
:100B10001ED4FFF789FD401B6428F7D905E100BF0B
:100B20002069002840F20000C4F2422000F08280D8
:100B300001210160FFF778FD054600BF306880079E
:100B40003FF588AFFFF770FD401B0228F6D9ECE0B7
:100B5000E068002800F08080052800F097800128D8
:100B600000F09880306A20F001003062306A20F096
:100B7000040092E00020C4F242200021C0F880145A
:100B8000FFF752FD054600BF706A80077FF56CAF26
:100B9000FFF74AFD401B0228F6D9C6E00027C4F241
:100BA000422700203866FFF73FFD022D05460BD196
:100BB0003068800140F1BE80FFF736FD401B0228FF
:100BC0004FF00300F4D968E7306880017FF564AF27
:100BD000FFF72AFD401B02284FF00300F4D95CE721
:100BE00040F20800C2F20000006844F6D351C1F29E
:100BF0006201A0FB0101480A019000BF00BF0198FB
:100C0000411E002801913FF42FAF00BF0198411E03
:100C1000002801913FF428AF00BF0198411E002831
:100C200001913FF421AF00BF0198411E00280191BE
:100C3000E4D119E700210160FFF7F6FC054600BF8B
:100C4000306880077FF50DAFFFF7EEFC401B0228F0
:100C50004FF00300F4D920E7306A20F00100306241
:100C6000306A20F004003062FFF7DEFC054641F2F6
:100C7000883700BF306A800720D5FFF7D5FC401BBE
:100C8000B8424FF00300F5D907E700BF306A40F0E3
:100C900004003062306A40F001003062FFF7C4FCAB
:100CA000054641F2883700BF306A800706D4FFF757
:100CB000BBFC401BB842F7D937E000BFB8F1000FCA
:100CC0007FF4D5AEF06920F08050F061CFE600BF30
:100CD000306820F480303060306820F4802030604C
:100CE000FFF7A2FC054600BF306880037FF59DAE8C
:100CF000FFF79AFC401B64284FF00300F4D9CCE6C0
:100D0000306840F480203060306840F480303060DB
:100D1000FFF78AFC054600BF306880033FF585AECB
:100D2000FFF782FC401B6428F6D9032002B0BDE81F
:100D3000F08100BF206AB0F5803F05D17168A268DC
:100D400021F40031114371607168626A21F47411F9
:100D500010430843706001203866FFF765FC0446C5
:100D6000306880013FF598AEFFF75EFC001B02285B
:100D70004FF00300F4D990E6411E0020B0EB116F54
:100D80001CBF012070474EF21002CEF200025160EB
:100D90004EF62351CEF20001F0230B700721906034
:100DA000116070477047000070470000B0B582B016
:100DB000026805461068D368546900F02F012029A5
:100DC00003F0200106D129B1284602B0BDE8B040A9
:100DD00000F05CBC5FEA007C1EBF04F0010E03F46F
:100DE000907414EB0E0455D1296B012905D110F034
:100DF000100118BF13F0100136D1010622D513F0EF
:100E000080011FD095F83D00212841D1A868B0F598
:100E1000805F03D12869002800F0F680286A411C11
:100E2000296200785060E88C01380104E8842FD1F1
:100E3000D06820F08000D060D06840F04000D060E2
:100E400002B0B0BD400623D513F0400020D0D068DA
:100E5000202120F04000D060284685F83D1002B0E7
:100E6000BDE8B04000F02CBA00200190106801905D
:100E70005068019001985069400613D4A88DE98DFF
:100E8000EB8D002B1CBF401A5FEA004140F0A480AC
:100E900002B0B0BDC40718BF13F480732CD1430750
:100EA00030D436E0A86B01684B689CB2002CEFD0C0
:100EB000A98D8C42ECD2EB858369202B17D0D168A9
:100EC00021F48071D160516921F0010151615169B2
:100ED00021F040015161202185F83E100021296355
:100EE000D16821F01001D160FFF7BCF9A98DE88D20
:100EF000081A81B2284682E02B6C43F001032B6470
:100F0000430706D5BEF1000F03D02B6C43F002035C
:100F10002B64830706D5BEF1000F03D02B6C43F082
:100F200004032B64BCF1000F06D551EA0E0303D075
:100F30002B6C43F008032B642B6C002BA8D010F013
:100F4000200018BF002903D0284600F09FFB2A6824
:100F50005069296C00F0400001F0080140182DD0C4
:100F6000D06820F49070D060506920F0010050618A
:100F7000286B012803D1D06820F01000D060202019
:100F800085F83E0000202863506940061ED5506950
:100F900020F040005061A86BC0B141F28161C0F601
:100FA00000014163FFF782F900283FF471AFA86B9D
:100FB000416B02B0BDE8B040084700BF2846FFF7CC
:100FC000F3FE0020286402B0B0BD00BF284602B086
:100FD000BDE8B040FFF7E8BED16821F49071D16060
:100FE000516921F001015161202185F83E10002155
:100FF0002963D16821F0100381B22846D36002B082
:10100000BDE8B040FFF7CEBE286A30F8021B6FF390
:101010005F215160286206E7002804BF0120704765
:1010200010B5044690F83D0028B9002084F83C0033
:10103000204600F05FF8242084F83D002068D4E9C1
:101040000212C36823F40053C360036923F44053BE
:101050001A430261D4E904231143C268194341F2DF
:101060000C639A431143C1604169A26921F4407144
:10107000114343F60002C4F201029042416103D0E1
:10108000FFF778FC02E000BFFFF788FC62681921D7
:1010900048439100B0FBF1F048F21F51C5F2EB114B
:1010A000A0FB01235A096FF0630302FB0300322304
:1010B00003EB0010A0FB0101F02303EA51132068A9
:1010C00003EB0212C1F3431111448160016921F461
:1010D00090410161416921F02A014161C16841F4F7
:1010E0000051C16000202021206484F83D1084F864
:1010F0003E1010BD70B586B040F60004C4F2010485
:101100000068A4F5444100268842049602D006B047
:1011100070BD00BF41F21800C4F20200416802AD88
:1011200041F400314160416801F4003101910199BD
:10113000016841F0040101600068294600F00400E4
:101140000190019804200290022003900320059052
:101150002046FFF753F90820CDE90206204629462C
:101160000496FFF74BF9262000210022FFF7E6FA4C
:101170002620FFF7D3FA06B070BD0000034690F8B2
:101180003E0020280AD100294FF0010018BF002A94
:1011900000D1704793F83C00012801D1022070472C
:1011A00000201863996222219A85DA85186483F8F1
:1011B0003E10196883F83C00CA6842F48072CA6025
:1011C0004A6942F001024A61CA6842F02002CA60DC
:1011D000704700002DE9F04140F27005C2F20005B1
:1011E000D5E903680027002403E000BF0134402C48
:1011F00012D02819007F00F0ADFA2869411C3F2861
:101200002961F3DBE8682F61411CB0F5FF7FC8BF9F
:101210000021E960EAE700BFC5E9036840F2101663
:101220000024C2F20006002703E000BF0137402F70
:1012300010D000F04FF82969F055481C3F2928616B
:10124000F4DBE8682C61411CB0F5FF7FC8BF0021CA
:10125000E960EBE740F2CC04C2F2000440F2101166
:10126000C2F200012046402200F008F805F11C01FE
:1012700020464022BDE8F041FFF780BF034690F8CA
:101280003D0020280AD100294FF0010018BF002A94
:1012900000D1704793F83C00012801D1022070472B
:1012A0001962002021219A84DA84186483F83D10A1
:1012B000196883F83C00CA6842F08002CA6070472F
:1012C00070470000FEE70000FEE70000FEE70000B8
:1012D00070470000F0B581B041F20004C4F201048F
:1012E000A4F50065284601210022FFF797F928465A
:1012F00002210122FFF792F9284640210022FFF740
:101300008DF9284680210022FFF788F928464FF4FE
:1013100080710022FFF782F928464FF40071002205
:10132000FFF77CF928464FF480610022FFF776F939
:1013300028464FF400610022FFF770F928464FF469
:1013400080510022FFF76AF920464FF480610022A5
:10135000FFF764F920464FF400610022FFF75EF9C1
:10136000204601210022FFF759F9204602210022E0
:10137000FFF754F9204604210022FFF74FF92046D9
:1013800008210022FFF74AF9204610210022FFF72A
:1013900045F9204620210022FFF740F940F270076E
:1013A000C2F20007F868C10740F08680810700F1AB
:1013B0008C80410700F19280010700F19980C106FD
:1013C00000F1A080810600F1A780410600F1AE8007
:1013D000010600F1B580C00500F1BC803869C10785
:1013E00040F0C280810700F1C880410700F1CE8043
:1013F000010700F1D480C10600F1DA80800604D52F
:10140000204620210122FFF709F920464021002231
:10141000FFF704F9A4F5806630464FF40051FFF75A
:10142000F7F8387530464FF48041FFF7F1F87875DA
:1014300030460421FFF7ECF8B87530464FF40061F0
:10144000FFF7E6F8F87530464FF48051FFF7E0F803
:10145000387630464FF40041FFF7DAF878763046B8
:101460004021FFF7D5F8B87630468021FFF7D0F855
:10147000F876284601210022FFF7D0F820464021C7
:101480000022FFF7CBF8B87EF97E800100EBC11097
:10149000797E3A7E00EB4110FB7D00EB0210397D36
:1014A0007A7DBF7D00EBC30000EB870000EB4200BC
:1014B0000844C0B201B0F0BD284640210122FFF728
:1014C000ADF8F86881077FF574AF284680210122C6
:1014D000FFF7A4F8F86841077FF56EAF28464FF490
:1014E00080710122FFF79AF8F86801077FF567AF6E
:1014F00028464FF400710122FFF790F8F868C10602
:101500007FF560AF28464FF480610122FFF786F82F
:10151000F86881067FF559AF28464FF40061012233
:10152000FFF77CF8F86841067FF552AF28464FF484
:1015300080510122FFF772F8F86801067FF54BAF82
:1015400020464FF480610122FFF768F8F868C00573
:101550007FF544AF20464FF400610122FFF75EF8AB
:101560003869C1073FF43EAF204601210122FFF751
:1015700055F8386981077FF538AF204602210122EE
:10158000FFF74CF8386941077FF532AF2046042158
:101590000122FFF743F8386901077FF52CAF204699
:1015A00008210122FFF73AF83869C1067FF526AF16
:1015B000204610210122FFF731F8386980067FF5B7
:1015C00024AF1DE77047000040F27000C2F2000037
:1015D000417D012906D079B9017D49B101290BD19D
:1015E000CF2108E0017D29B1012905D1C92102E0FF
:1015F000FF2100E0F9210172C17D39B101290FD12C
:10160000817D012908D059B9F92108E0817D01299E
:1016100004D029B9FF2102E0C92100E0CF214172A5
:10162000417E39B101290FD1017E012908D059B974
:10163000F92108E0017E012904D029B9FF2102E047
:10164000C92100E0CF218172C17E39B1012911D1B8
:10165000817E01290AD069B9F9210AE0817E012938
:1016600006D0002918BF7047FF2102E0C92100E021
:10167000CF21C17270470000FEF7DCBF7047000049
:10168000406A0021C185C184FFF78EBB81B090F80C
:101690003E10222920D18368B3F5805F08D101690B
:1016A000002941D000F128010A6803685B680AE05C
:1016B000014651F8282F13B90369002BF5D00368B0
:1016C0005B6803F07F0313700A6801320A60C18D02
:1016D00001390A04C18501D001B070470168CA68A8
:1016E00022F02002CA60CA6822F48072CA604A6985
:1016F00022F001024A61202280F83E20026B012A7A
:101700001CD100220263CB6823F01003CB600B686E
:10171000DB0605D500920A6800924968009100999D
:10172000818D01B0FFF73EBB0168826A49686FF3A3
:101730005F2122F8021B8262C9E700BF01B0FFF7F8
:1017400049BD000040F2CC00C2F20000FFF72EBB02
:10175000FEE700002DE9F04389B040F60005C4F231
:10176000010505F500640646204640210022FEF7EB
:1017700055FF284601210122FEF750FF284602218D
:101780000122FEF74BFF284640210022FEF746FFCC
:10179000284680210022FEF741FF28464FF4807141
:1017A0000022FEF73BFF28464FF400710022FEF7AF
:1017B00035FF28464FF480610022FEF72FFF2846B0
:1017C0004FF400610022FEF729FF28464FF48051B4
:1017D0000022FEF723FF20464FF480610022FEF72F
:1017E0001DFF20464FF400610022FEF717FF204640
:1017F00001210022FEF712FF204602210022FEF7FF
:101800000DFF204604210022FEF708FF2046082194
:101810000022FEF703FF204610210022FEF7FEFE05
:10182000204620210022FEF7F9FE40F27007C2F2A6
:101830000007F868C10740F09980810700F19F8098
:10184000410700F1A580010700F1AC80C10600F15D
:10185000B380810600F1BA80410600F1C180010623
:1018600000F1C880C00500F1CF803869C10740F0A1
:10187000D580810700F1DB80410700F1E18001079D
:1018800000F1E780C10600F1ED80800604D5204616
:1018900020210122FEF7C2FE11200690022005F54C
:1018A00080674FF6C4084FF00009089005A9384634
:1018B000CDF81480CDF81C90FEF7A0FD284601213C
:1018C0000022FEF7ABFE284602210022FEF7A6FE0C
:1018D00006F0010238468021FEF7A0FEC6F3400262
:1018E00038464021FEF79AFEC6F3800238464FF490
:1018F0000041FEF793FEC6F3C00238464FF4805114
:10190000FEF78CFEC6F3001238464FF40061FEF776
:1019100085FEC6F3401238460421FEF77FFEC6F36B
:10192000801238464FF48041FEF778FEF2093846BF
:101930004FF40051FEF772FE284601210122FEF706
:101940006DFE284602210122FEF768FE2046402156
:101950000022FEF763FE01A93846CDE90189CDF8E2
:101960000C90FEF74BFD09B0BDE8F08328464021FE
:101970000122FEF753FEF86881077FF561AF284624
:1019800080210122FEF74AFEF86841077FF55BAF30
:1019900028464FF480710122FEF740FEF8680107E7
:1019A0007FF554AF28464FF400710122FEF736FE52
:1019B000F868C1067FF54DAF28464FF480610122DB
:1019C000FEF72CFEF86881067FF546AF28464FF4F7
:1019D00000610122FEF722FEF86841067FF53FAF65
:1019E00028464FF480510122FEF718FEF8680106E0
:1019F0007FF538AF20464FF480610122FEF70EFEDE
:101A0000F868C0057FF531AF20464FF40061012230
:101A1000FEF704FE3869C1073FF42BAF20460121D1
:101A20000122FEF7FBFD386981077FF525AF2046CF
:101A300002210122FEF7F2FD386941077FF51FAF51
:101A4000204604210122FEF7E9FD386901077FF5F0
:101A500019AF204608210122FEF7E0FD3869C106D2
:101A60007FF513AF204610210122FEF7D7FD38691C
:101A700080067FF511AF0AE790B0FEF7E9FD00247C
:101A80000120CDE90B44CDE9094406900A904FF4BA
:101A9000E0104FF4803102250F9006A8CDE907141D
:101AA000CDE90D51FEF78EFF20B1EFF3108072B635
:101AB000FEE700BF0F20CDE901054FF48060CDE9BE
:101AC000040401A802210394FEF774FE20B1EFF391
:101AD000108072B6FEE700BF4FF0000B41F2180015
:101AE000CDF824B0C4F20200016841F2000941F0CF
:101AF000100101600168C4F2010901F010010191B7
:101B00000199016840F6000441F02001016001687C
:101B1000002201F02001019101990168C4F2010441
:101B200041F004010160016840F67F4601F00401C4
:101B300001910199016841F008010160006840F6D7
:101B40007F4100F00800019001984846FEF766FDCD
:101B5000204641F6E3710022FEF760FDA9F580659D
:101B600028464FF4E0610022FEF758FD40F20008DD
:101B70004FF40050C1F21108069008F5801006AF2E
:101B8000CDE9070B48463946FEF738FC0696112684
:101B90004FF0020A48463946CDE9076BCDF824A03C
:101BA000FEF72CFC41F6C37006A981E841082046E7
:101BB0003946CDF824A0FEF721FC102006A981E8C3
:101BC000010920463946FEF719FC2020069001261F
:101BD00020463946CDE9076BCDF824A0FEF70EFC70
:101BE0004FF6C400CDE9060B28463946CDF820B0A3
:101BF000FEF704FC4FF4E06006A981E8410828469E
:101C00003946CDF824A0FEF7F9FB802006A981E82B
:101C1000010948463946FEF7F1FB0A20002100225F
:101C2000FEF78CFD0A20FEF779FD17200021002227
:101C3000FEF784FD1720FEF771FD28200021002209
:101C4000FEF77CFD2820FEF769FD40F2CC0044F24F
:101C50000041C2F20000C4F200010C234FF4E13253
:101C600080E80608C0E903BBC0E9053BC0F81CB02A
:101C7000FFF7D2F920B1EFF3108072B6FEE700BF94
:101C800040F27007C2F2000740F2CC004EF280260C
:101C900007F11C01C2F2000040224FF0000ACEF210
:101CA0000006FFF76BFA4FF61445CFF6FF754FF4B9
:101CB000807B4FF400084FF480690FE0397A0120EF
:101CC00000F02EF8797A022000F02AF8B97A042080
:101CD00000F026F8F97A082000F022F83868002889
:101CE000ECD0FEF7A1FC7968401AC928E6D3802021
:101CF0006051102060514FF4005060512820C6F808
:101D000004B0C6F80080C6F80090FEF707FD172063
:101D1000FEF704FD0A20FEF701FDC7F800A0CDE79D
:101D200070B540F60044C4F201040E460546CA09E7
:101D300020464FF48071FEF771FC20464FF400718D
:101D40000122FEF76BFC20464FF400710022FEF7E3
:101D500065FCC6F3801220464FF48071FEF75EFCEE
:101D600020464FF400710122FEF758FC20464FF444
:101D700000710022FEF752FCC6F3401220464FF4D9
:101D80008071FEF74BFC20464FF400710122FEF7F4
:101D900045FC20464FF400710022FEF73FFCC6F3DD
:101DA000001220464FF48071FEF738FC20464FF4B5
:101DB00000710122FEF732FC20464FF40071002230
:101DC000FEF72CFCC6F3C00220464FF48071FEF7EC
:101DD00025FC20464FF400710122FEF71FFC20462F
:101DE0004FF400710022FEF719FCC6F38002204672
:101DF0004FF48071FEF712FC20464FF4007101226F
:101E0000FEF70CFC20464FF400710022FEF706FCA2
:101E1000C6F3400220464FF48071FEF7FFFB2046D8
:101E20004FF400710122FEF7F9FB20464FF40071D8
:101E30000022FEF7F3FB06F0010220464FF480710A
:101E4000FEF7ECFB20464FF400710122FEF7E6FBA3
:101E500020464FF400710022FEF7E0FBEA0920461D
:101E60004FF48071FEF7DAFB20464FF40071012237
:101E7000FEF7D4FB20464FF400710022FEF7CEFBA4
:101E8000C5F3801220464FF48071FEF7C7FB204651
:101E90004FF400710122FEF7C1FB20464FF40071A0
:101EA0000022FEF7BBFBC5F3401220464FF48071C1
:101EB000FEF7B4FB20464FF400710122FEF7AEFBA3
:101EC00020464FF400710022FEF7A8FBC5F3001274
:101ED00020464FF48071FEF7A1FB20464FF40071BD
:101EE0000122FEF79BFB20464FF400710022FEF713
:101EF00095FBC5F3C00220464FF48071FEF78EFBC0
:101F000020464FF400710122FEF788FB20464FF473
:101F100000710022FEF782FBC5F3800220464FF4D9
:101F20008071FEF77BFB20464FF400710122FEF723
:101F300075FB20464FF400710022FEF76FFBC5F3DE
:101F4000400220464FF48071FEF768FB20464FF4B4
:101F500000710122FEF762FB20464FF4007100225F
:101F6000FEF75CFB05F0010220464FF48071FEF79E
:101F700055FB20464FF400710122FEF74FFB20462F
:101F80004FF400710022FEF749FB20464FF48061B8
:101F90000122FEF743FB20464FF480610022BDE89A
:101FA0007040FEF73BBB0102000000000000000093
:101FB00001020304060708090000000001020304EF
:101FC00002030405060708090A0B0C0D0E0F10107A
:101FD000F01F000800000020100000002801000889
:101FE00000200008100000204807000044010008FD
:101FF00001000000100000000024F40000000000B8
:04000005080000ED02
:00000001FF
