:020000040800F2
:1000000030070020890100085D1200085512000821
:100010005912000845020008A5160008000000005B
:10002000000000000000000000000000191500089A
:10003000490200080000000061120008CD15000808
:10004000A3010008A3010008A3010008A301000800
:10005000A3010008A3010008A3010008A3010008F0
:10006000A3010008A301000855020008A30100082D
:10007000A3010008A3010008A3010008A3010008D0
:10008000A3010008A3010008A3010008A3010008C0
:10009000A3010008A3010008A30100085D020008F5
:1000A000A3010008A3010008A3010008A3010008A0
:1000B000A3010008A3010008A3010008A301000890
:1000C000A3010008A3010008A3010008A301000880
:1000D000A3010008A301000899160008A301000865
:1000E0004D020008A3010008A301000800F002F877
:1000F00000F03AF80AA090E8000C82448344AAF188
:100100000107DA4501D100F02FF8AFF2090EBAE885
:100110000F0013F0010F18BFFB1A43F0010318473B
:100120000C1E00002C1E0000103A24BF78C878C1B5
:10013000FAD8520724BF30C830C144BF04680C60ED
:10014000704700000023002400250026103A28BF35
:1001500078C1FBD8520728BF30C148BF0B60704739
:100160001FB51FBD10B510BD00F031F81146FFF7E7
:10017000F7FF01F02BFC00F04FF803B4FFF7F2FF9C
:1001800003BC00F057F800000948804709480047C1
:10019000FEE7FEE7FEE7FEE7FEE7FEE7FEE7FEE737
:1001A000FEE7FEE704480549054A064B7047000094
:1001B000D1150008ED0000083001002030070020B4
:1001C00030030020300300207047704770477546A9
:1001D00000F02CF8AE4605006946534620F00700B3
:1001E000854618B020B5FFF7DDFFBDE820404FF091
:1001F00000064FF000074FF000084FF0000BAC4630
:10020000ACE8C009ACE8C009ACE8C009ACE8C0097A
:1002100021F007018D46704710B50446AFF300800A
:100220002046BDE81040FFF7A8BF00000048704717
:100230001000002001491820ABBEFEE72600020096
:1002400070470000FEE70000704700004FF40050C8
:1002500000F0C8B8102000F0C5B80000802000F001
:10026000C1B80000014690F82100022816D10868A4
:10027000D1E90FC3026822F00E020260026822F088
:1002800001020260012000FA03F2CCF8042081F898
:1002900021000020002281F820207047042088637C
:1002A0000120002281F820207047000080B590F8DE
:1002B0002110022924D10268116821F00E01116079
:1002C0002F211368C4F202018A4240F20401C4F2F1
:1002D000020123F00103136016DD3023C4F2020390
:1002E0009A421DD04423C4F202039A421CD05823E0
:1002F000C4F202039A421DD14FF4803322E000BFC2
:1003000004218163012080BD0823C4F202039A42C4
:100310000ED01C23C4F202039A420BD1102311E029
:100320004FF480730EE000BF4FF480530AE000BF2B
:10033000012307E001F1680C4FF08073624508BFAC
:100340004FF480130B60416B4FF48072028401B153
:100350008847002080BD0000B0B50446282000F08A
:10036000C9F9172000F0C6F90A2000F0C3F940F2DD
:100370007005102CC2F2000516D0B4F5005F27D02E
:10038000802C28D12869411E0028296107DCE968F2
:100390003F202861481EB8BF40F2FF10E86000F01F
:1003A00061FF01F0BBF816E02869411C3F28296174
:1003B00008DBE96800202861481CB1F5FF7FC8BF51
:1003C0000020E86000F04EFF01F0A8F803E000BF55
:1003D000F32001F069F90120286000F025F9686038
:1003E000B0BD000040F21441C4F201010A680242AB
:1003F00014BF08607047FFF7AFBF00002DE9F04F52
:1004000082B041F20042C4F201020E68042390421D
:1004100008BF0323002E009300F0F68040F20C4E3C
:100420004FF6FF7CC4F2010E00220124C1F2100C31
:100430004FF0000A4FF0000943E000BF012502F031
:100440000C040F27A7402BEA070705FA04F43C43E6
:1004500043F82640D1F804B040F20045C4F201054B
:100460005FEACB332B6854BF23EA080343EA08034F
:100470002B606B685FEA8B3454BF23EA080343EABE
:1004800008036B605FEACB24AB6854BF23EA080320
:1004900043EA08035FEA8B24AB60DEF800304FF0DC
:1004A000010454BF23EA080343EA0803CEF80030EE
:1004B0000E680AF1010A36FA0AF302F1040200F0AA
:1004C000A38004FA0AF816EA080FF1D04B686345D6
:1004D00012DC122B56D8DFE803F0350B4549555591
:1004E00055555555555555555555554D510000BF08
:1004F000D1F80C9046E000BF4FF6FF77C1F221071C
:10050000BB420FDC0027C1F21107BB421AD0002703
:10051000C1F21207BB4215D00027C1F22107BB422E
:1005200010D02FE00027C1F22207BB420AD00027DB
:10053000C1F23107BB4205D00027C1F23207BB42EE
:1005400020D100BF8B684BB1012B14BFC0F81480C1
:10055000C0F810804FF0080914E000BF4FF0040904
:1005600010E000BFCB6803F108090BE04FF0000971
:1005700008E000BFCB6803F1040903E0CB6803F196
:100580000C0900BF13460546BAF1080F24BF203BF3
:1005900004352E680F279F40BE4309FA03F3334307
:1005A0002B60CB79DB067FF583AF41F21804C4F2F0
:1005B000020423684FEA9A0643F00103236023688C
:1005C00040F6000403F001030193019B40F2004355
:1005D000C4F20103A3F57E7353F826B0C4F20104FC
:1005E000A0420FD040F60044C4F20104A0423FF400
:1005F00025AF41F20004C4F20104009DA04208BFEF
:1006000002251CE700251AE702B0BDE8F08F0000C4
:100610008068084018BF012070470000002A08BF0A
:10062000090401617047000040F22C10C2F2000082
:100630000068704740F2000040F22C11C2F2000046
:10064000C2F2000100780A68104408607047000098
:1006500080B542F20000C4F20200016841F01001CE
:100660000160032000F096F8002000F005F800F08B
:1006700027F8002080BD000070B540F20006C2F2ED
:10068000000640F208013278C2F200014FF47A739A
:100690000968B3FBF2F20446B1FBF2F1084600F040
:1006A0006BFB0F2C4FF0010508D838B94FF0FF3025
:1006B00021460022002500F041F87460284670BDF4
:1006C00082B041F21800C4F20200016841F0010159
:1006D0000160016801F0010101910199416841F057
:1006E00080514160406800F080500090009802B056
:1006F00070470000002848BF704700F01F0101222A
:1007000002FA01F14EF280124009CEF2000242F8E4
:100710002010BFF34F8FBFF36F8F7047002848BF83
:10072000704700F01F01012202FA01F14EF200129F
:100730004009CEF2000242F82010704710B54EF684
:100740000C5CCEF2000CDCF80030C3F3022E8EF00D
:100750000704042C28BF0424BEF103034FF0FF3E1E
:100760000EFA04F438BF0023A14399400EFA03F3B4
:100770009A43114300F00F02043A624409010C321B
:1007800000F16043B0F1FF3FC8BF03F56442117050
:1007900010BD00004EF60C51CEF200010A684FF673
:1007A000FF031A4060F30A2242F0806040F0FD70BF
:1007B000086070472DE9F04381B0002800F0858083
:1007C00042F20008C4F202080446D8F800000D46C0
:1007D00000F0070088420CD2D8F8000020F0070093
:1007E0002843C8F80000D8F8000000F00700A8422D
:1007F0006BD1206841F204098107C4F2020917D5C0
:10080000410705D5D9F8001041F4E061C9F800109E
:10081000010705D5D9F8001041F46051C9F800105E
:10082000D9F80010A26821F0F0011143C9F80010B6
:10083000C00741D1D8F8000000F00700A8420CD949
:10084000D8F8000020F007002843C8F80000D8F8C6
:10085000000000F00700A84237D12068410707D503
:10086000D9F80010E26821F4E0611143C9F80010E2
:10087000000708D5D9F80000216920F4605040EA4B
:10088000C100C9F80000D9F8002002F00C000828C7
:1008900041F20020C0F27A0050D141F61C73C2F33D
:1008A0008341C0F60003595CD2033BD440F60010EC
:1008B000C0F23D00484341E0606802280AD00128A8
:1008C0002AD159F8041C890308D4012001B0BDE8DD
:1008D000F08300BF59F8041C8901F6D5D9F800103F
:1008E00021F003010843C9F80000FFF79DFE06460A
:1008F00041F28837D9F80000616800F00C00B0EBD5
:10090000810F97D0FFF790FE801BB842F2D90320E9
:1009100001B0BDE8F08300BF59F8041C8907D4D5A5
:10092000DCE700BFD9F8002041F60273C2F3404271
:10093000C0F600039A5C4843B0FBF2F0D9F800100F
:1009400041F60472C1F30311C0F60002515C40F29B
:10095000080220FA01F140F20400C2F2000000682F
:10096000C2F200021160FFF787FE002001B0BDE86F
:10097000F083000040F2080041F20401C2F20000DE
:10098000C4F202010068096841F61472C1F3022141
:10099000C0F60002515CC8407047000040F20800F9
:1009A00041F20401C2F20000C4F2020100680968C9
:1009B00041F61472C1F3C221C0F60002515CC84076
:1009C000704700002DE9F04182B0002868D004464D
:1009D000007841F20006C007C4F2020625D0706814
:1009E00000F00C0004281BD0706800F00C000828F0
:1009F00002D17068C00313D46068002800F06881D9
:100A0000B0F5A02F00F07C81B0F5803F00F07C8134
:100A1000306820F480303060306820F4802076E147
:100A20003068800301D56068D0B32078800718D57E
:100A3000706810F00C0F07D0706800F00C000828E8
:100A40006ED17068C0036BD43068800702D520690E
:100A5000012825D13068616920F0F80040EAC10022
:100A60003060207800071FD42078400732D4E56931
:100A700095B1706800F00C00082840F08F80012DBF
:100A80000ED07068216A00F480328A4208D1616A0F
:100A900000F47010884203D1002002B0BDE8F0815C
:100AA000012002B0BDE8F081A069002862D00020DA
:100AB000C4F242200121C0F88014FFF7B5FD0546BD
:100AC000706A800700F18C80FFF7AEFD401B0228A2
:100AD000F6D92AE1F06910F0805808D1F06940F0A9
:100AE0008050F061F06900F080500090009847F26B
:100AF0000007C4F200073868C00529D4386840F4FC
:100B000080703860FFF790FD054600BF3868C0056B
:100B10001ED4FFF789FD401B6428F7D905E100BF0B
:100B20002069002840F20000C4F2422000F08280D8
:100B300001210160FFF778FD054600BF306880079E
:100B40003FF588AFFFF770FD401B0228F6D9ECE0B7
:100B5000E068002800F08080052800F097800128D8
:100B600000F09880306A20F001003062306A20F096
:100B7000040092E00020C4F242200021C0F880145A
:100B8000FFF752FD054600BF706A80077FF56CAF26
:100B9000FFF74AFD401B0228F6D9C6E00027C4F241
:100BA000422700203866FFF73FFD022D05460BD196
:100BB0003068800140F1BE80FFF736FD401B0228FF
:100BC0004FF00300F4D968E7306880017FF564AF27
:100BD000FFF72AFD401B02284FF00300F4D95CE721
:100BE00040F20800C2F20000006844F6D351C1F29E
:100BF0006201A0FB0101480A019000BF00BF0198FB
:100C0000411E002801913FF42FAF00BF0198411E03
:100C1000002801913FF428AF00BF0198411E002831
:100C200001913FF421AF00BF0198411E00280191BE
:100C3000E4D119E700210160FFF7F6FC054600BF8B
:100C4000306880077FF50DAFFFF7EEFC401B0228F0
:100C50004FF00300F4D920E7306A20F00100306241
:100C6000306A20F004003062FFF7DEFC054641F2F6
:100C7000883700BF306A800720D5FFF7D5FC401BBE
:100C8000B8424FF00300F5D907E700BF306A40F0E3
:100C900004003062306A40F001003062FFF7C4FCAB
:100CA000054641F2883700BF306A800706D4FFF757
:100CB000BBFC401BB842F7D937E000BFB8F1000FCA
:100CC0007FF4D5AEF06920F08050F061CFE600BF30
:100CD000306820F480303060306820F4802030604C
:100CE000FFF7A2FC054600BF306880037FF59DAE8C
:100CF000FFF79AFC401B64284FF00300F4D9CCE6C0
:100D0000306840F480203060306840F480303060DB
:100D1000FFF78AFC054600BF306880033FF585AECB
:100D2000FFF782FC401B6428F6D9032002B0BDE81F
:100D3000F08100BF206AB0F5803F05D17168A268DC
:100D400021F40031114371607168626A21F47411F9
:100D500010430843706001203866FFF765FC0446C5
:100D6000306880013FF598AEFFF75EFC001B02285B
:100D70004FF00300F4D990E6411E0020B0EB116F54
:100D80001CBF012070474EF21002CEF200025160EB
:100D90004EF62351CEF20001F0230B700721906034
:100DA000116070477047000070470000B0B582B016
:100DB000026805461068D368546900F02F012029A5
:100DC00003F0200106D129B1284602B0BDE8B040A9
:100DD00000F006BC5FEA007C1EBF04F0010E03F4C5
:100DE000907414EB0E0455D1296B012905D110F034
:100DF000100118BF13F0100136D1010622D513F0EF
:100E000080011FD095F83D00212841D1A868B0F598
:100E1000805F03D12869002800F0F680286A411C11
:100E2000296200785060E88C01380104E8842FD1F1
:100E3000D06820F08000D060D06840F04000D060E2
:100E400002B0B0BD400623D513F0400020D0D068DA
:100E5000202120F04000D060284685F83D1002B0E7
:100E6000BDE8B04000F0F4B9002001901068019096
:100E70005068019001985069400613D4A88DE98DFF
:100E8000EB8D002B1CBF401A5FEA004140F0A480AC
:100E900002B0B0BDC40718BF13F480732CD1430750
:100EA00030D436E0A86B01684B689CB2002CEFD0C0
:100EB000A98D8C42ECD2EB858369202B17D0D168A9
:100EC00021F48071D160516921F0010151615169B2
:100ED00021F040015161202185F83E100021296355
:100EE000D16821F01001D160FFF7BCF9A98DE88D20
:100EF000081A81B2284682E02B6C43F001032B6470
:100F0000430706D5BEF1000F03D02B6C43F002035C
:100F10002B64830706D5BEF1000F03D02B6C43F082
:100F200004032B64BCF1000F06D551EA0E0303D075
:100F30002B6C43F008032B642B6C002BA8D010F013
:100F4000200018BF002903D0284600F049FB2A687A
:100F50005069296C00F0400001F0080140182DD0C4
:100F6000D06820F49070D060506920F0010050618A
:100F7000286B012803D1D06820F01000D060202019
:100F800085F83E0000202863506940061ED5506950
:100F900020F040005061A86BC0B141F2D551C0F6BD
:100FA00000014163FFF782F900283FF471AFA86B9D
:100FB000416B02B0BDE8B040084700BF2846FFF7CC
:100FC000F3FE0020286402B0B0BD00BF284602B086
:100FD000BDE8B040FFF7E8BED16821F49071D16060
:100FE000516921F001015161202185F83E10002155
:100FF0002963D16821F0100381B22846D36002B082
:10100000BDE8B040FFF7CEBE286A30F8021B6FF390
:101010005F215160286206E7002804BF0120704765
:1010200010B5044690F83D0028B9002084F83C0033
:10103000204600F05FF8242084F83D002068D4E9C1
:101040000212C36823F40053C360036923F44053BE
:101050001A430261D4E904231143C268194341F2DF
:101060000C639A431143C1604169A26921F4407144
:10107000114343F60002C4F201029042416103D0E1
:10108000FFF778FC02E000BFFFF788FC62681921D7
:1010900048439100B0FBF1F048F21F51C5F2EB114B
:1010A000A0FB01235A096FF0630302FB0300322304
:1010B00003EB0010A0FB0101F02303EA51132068A9
:1010C00003EB0212C1F3431111448160016921F461
:1010D00090410161416921F02A014161C16841F4F7
:1010E0000051C16000202021206484F83D1084F864
:1010F0003E1010BD70B586B040F60004C4F2010485
:101100000068A4F5444100268842049602D006B047
:1011100070BD00BF41F21800C4F20200416802AD88
:1011200041F400314160416801F4003101910199BD
:10113000016841F0040101600068294600F00400E4
:101140000190019804200290022003900320059052
:101150002046FFF753F90820CDE90206204629462C
:101160000496FFF74BF9262000210022FFF7E6FA4C
:101170002620FFF7D3FA06B070BD0000034690F8B2
:101180003E0020280AD100294FF0010018BF002A94
:1011900000D1704793F83C00012801D1022070472C
:1011A00000201863996222219A85DA85186483F8F1
:1011B0003E10196883F83C00CA6842F48072CA6025
:1011C0004A6942F001024A61CA6842F02002CA60DC
:1011D0007047000070B540F20C0640F27000C2F299
:1011E0000006C2F2000040F2E805328800F1340443
:1011F000C2F200052846214600F008F83288284649
:101200002146BDE87040FFF7B9BF0000034690F8E3
:101210003D0020280AD100294FF0010018BF002A04
:1012200000D1704793F83C00012801D1022070479B
:101230001962002021219A84DA84186483F83D1011
:10124000196883F83C00CA6842F08002CA6070479F
:1012500070470000FEE70000FEE70000FEE7000028
:101260007047000070B540F60004C4F20104204647
:1012700001210022FFF7D2F9204602210122FFF7C7
:10128000CDF9204640210022FFF7C8F920468021F1
:101290000022FFF7C3F920464FF480710022FFF7C8
:1012A000BDF920464FF400710022FFF7B7F9204640
:1012B0004FF480610022FFF7B1F920464FF400613E
:1012C0000022FFF7ABF920464FF480510022FFF7D0
:1012D000A5F904F5006528464FF480610022FFF768
:1012E0009DF928464FF400610022FFF797F9284640
:1012F00001210022FFF792F9284602210022FFF780
:101300008DF9284604210022FFF788F92846082194
:101310000022FFF783F9284610210022FFF77EF90B
:10132000284620210022FFF779F940F27006C2F228
:101330000006F068C1076BD1810771D4410777D4EB
:10134000010700F17F80C10600F18680810600F16F
:101350008D80410600F19480010600F19B80C0055C
:1013600000F1A2803069C10740F0A880810700F138
:10137000AE80410700F1B480010700F1BA80C106D8
:1013800000F1C080800604D5284620210122FFF705
:1013900045F9284640210022FFF740F904F5806511
:1013A00028464FF40051FFF733F9706128464FF497
:1013B0008041FFF72DF9B06128460421FFF728F995
:1013C000F06128464FF40061FFF722F930622846A9
:1013D0004FF48051FFF71CF9706228464FF400412A
:1013E000FFF716F9B06228464021FFF711F9F062C5
:1013F00028468021FFF70CF9316A3063012918BFB4
:1014000070BD204620210122BDE87040FFF706B9DB
:10141000204640210122FFF701F9F06881078DD5B0
:10142000204680210122FFF7F9F8F068410787D5AF
:1014300020464FF480710122FFF7F0F8F0680107B1
:101440007FF581AF20464FF400710122FFF7E6F8E7
:10145000F068C1067FF57AAF20464FF48061012223
:10146000FFF7DCF8F06881067FF573AF20464FF494
:1014700000610122FFF7D2F8F06841067FF56CAFFA
:1014800020464FF480510122FFF7C8F8F0680106AA
:101490007FF565AF28464FF480610122FFF7BEF863
:1014A000F068C0057FF55EAF28464FF40061012269
:1014B000FFF7B4F83069C1073FF458AF284601215F
:1014C0000122FFF7ABF8306981077FF552AF28465C
:1014D00002210122FFF7A2F8306941077FF54CAFE6
:1014E000284604210122FFF799F8306901077FF5AA
:1014F00046AF284608210122FFF790F83069C1065F
:101500007FF540AF284610210122FFF787F83069A8
:1015100080067FF53EAF37E77047000040F270006D
:10152000C2F200008169012906D079B9416949B147
:1015300001290BD1CF2108E0416929B1012905D149
:10154000C92102E0FF2100E0F9210172016A39B1ED
:1015500001290FD1C169012908D059B9F92108E041
:10156000C169012904D029B9FF2102E0C92100E0A5
:10157000CF214172816A39B101290FD1416A012914
:1015800008D059B9F92108E0416A012904D029B9E4
:10159000FF2102E0C92100E0CF218172016B39B146
:1015A000012911D1C16A01290AD069B9F9210AE0DA
:1015B000C16A012906D0002918BF7047FF2102E047
:1015C000C92100E0CF21C17270470000FFF732B897
:1015D00070470000406A0021C185C184FFF7E4BB69
:1015E00081B090F83E10222920D18368B3F5805F46
:1015F00008D10169002941D000F128010A68036877
:101600005B680AE0014651F8282F13B90369002BE3
:10161000F5D003685B6803F07F0313700A6801323A
:101620000A60C18D01390A04C18501D001B070473B
:101630000168CA6822F02002CA60CA6822F4807277
:10164000CA604A6922F001024A61202280F83E20E5
:10165000026B012A1CD100220263CB6823F0100325
:10166000CB600B68DB0605D500920A6800924968DA
:1016700000910099818D01B0FFF794BB0168826AE7
:1016800049686FF35F2122F8021B8262C9E700BF3D
:1016900001B0FFF79FBD000040F2E800C2F2000079
:1016A000FFF784BBFEE700002DE9F04389B040F668
:1016B0000005C4F2010505F50064064620464021F8
:1016C0000022FEF7ABFF284601210122FEF7A6FF0C
:1016D000284602210122FEF7A1FF284640210022D0
:1016E000FEF79CFF284680210022FEF797FF284640
:1016F0004FF480710022FEF791FF28464FF40071ED
:101700000022FEF78BFF28464FF480610022FEF78F
:1017100085FF28464FF400610022FEF77FFF284630
:101720004FF480510022FEF779FF20464FF480618C
:101730000022FEF773FF20464FF400610022FEF7FF
:101740006DFF204601210022FEF768FF204602219E
:101750000022FEF763FF204604210022FEF75EFF11
:10176000204608210022FEF759FF204610210022C2
:10177000FEF754FF204620210022FEF74FFF40F2E3
:101780007007C2F20007F868C10740F0998081072E
:1017900000F19F80410700F1A580010700F1AC80B6
:1017A000C10600F1B380810600F1BA80410600F164
:1017B000C180010600F1C880C00500F1CF80386902
:1017C000C10740F0D580810700F1DB80410700F1BF
:1017D000E180010700F1E780C10600F1ED8080069D
:1017E00004D5204620210122FEF718FF1120069083
:1017F000022005F580674FF6C4084FF000090890F5
:1018000005A93846CDF81480CDF81C90FEF7F6FDFA
:10181000284601210022FEF701FF2846022100226E
:10182000FEF7FCFE06F0010238468021FEF7F6FEC8
:10183000C6F3400238464021FEF7F0FEC6F38002B0
:1018400038464FF40041FEF7E9FEC6F3C0023846C1
:101850004FF48051FEF7E2FEC6F3001238464FF413
:101860000061FEF7DBFEC6F3401238460421FEF7A6
:10187000D5FEC6F3801238464FF48041FEF7CEFE07
:10188000F20938464FF40051FEF7C8FE2846012100
:101890000122FEF7C3FE284602210122FEF7BEFE0A
:1018A000204640210022FEF7B9FE01A93846CDE9C5
:1018B0000189CDF80C90FEF7A1FD09B0BDE8F083D9
:1018C000284640210122FEF7A9FEF86881077FF52E
:1018D00061AF284680210122FEF7A0FEF86841078B
:1018E0007FF55BAF28464FF480710122FEF796FE2C
:1018F000F86801077FF554AF28464FF400710122C4
:10190000FEF78CFEF868C1067FF54DAF28464FF410
:1019100080610122FEF782FEF86881067FF546AFFE
:1019200028464FF400610122FEF778FEF868410670
:101930007FF53FAF28464FF480510122FEF76EFE3F
:10194000F86801067FF538AF20464FF48061012228
:10195000FEF764FEF868C0057FF531AF20464FF40E
:1019600000610122FEF75AFE3869C1073FF42BAF30
:10197000204601210122FEF751FE386981077FF5DB
:1019800025AF204602210122FEF748FE38694107B3
:101990007FF51FAF204604210122FEF73FFE386984
:1019A00001077FF519AF204608210122FEF736FE18
:1019B0003869C1067FF513AF204610210122FEF7DA
:1019C0002DFE386980067FF511AF0AE790B0FEF76B
:1019D0003FFE00240120CDE90B44CDE909440690E7
:1019E0000A904FF4E0104FF4803102250F9006A8C2
:1019F000CDE90714CDE90D51FEF7E4FF20B1EFF377
:101A0000108072B6FEE700BF0F20CDE901054FF44C
:101A10008060CDE9040401A802210394FEF7CAFE08
:101A200020B1EFF3108072B6FEE700BF4FF0000B5D
:101A300041F21800CDF824B0C4F20200016841F26E
:101A4000000941F0100101600168C4F2010901F0D0
:101A5000100101910199016840F6000441F0200154
:101A600001600168002201F02001019101990168E3
:101A7000C4F2010441F004010160016840F67F46B0
:101A800001F0040101910199016841F00801016030
:101A9000006840F67F4100F0080001900198484638
:101AA000FEF7BCFD204641F6E3710022FEF7B6FDCD
:101AB000A9F5806528464FF4E0610022FEF7AEFDEF
:101AC00040F200084FF40050C1F21108069008F5EA
:101AD000801006AFCDE9070B48463946FEF78EFC6D
:101AE000069611264FF0020A48463946CDE9076BA3
:101AF000CDF824A0FEF782FC41F6C37006A981E868
:101B0000410820463946CDF824A0FEF777FC102086
:101B100006A981E8010920463946FEF76FFC20201E
:101B20000690012620463946CDE9076BCDF824A062
:101B3000FEF764FC4FF6C400CDE9060B2846394693
:101B4000CDF820B0FEF75AFC4FF4E06006A981E81A
:101B5000410828463946CDF824A0FEF74FFC8020E6
:101B600006A981E8010948463946FEF747FC0A20E4
:101B700000210022FEF7E2FD0A20FEF7CFFD17202C
:101B800000210022FEF7DAFD1720FEF7C7FD28200E
:101B900000210022FEF7D2FD2820FEF7BFFD40F213
:101BA000E80044F20041C2F20000C4F200010C233C
:101BB0004FF4E13280E80608C0E903BBC0E9053B09
:101BC000C0F81CB0FFF728FA20B1EFF3108072B60E
:101BD000FEE700BF40F20C00C2F2000040F27007C6
:101BE0000288C2F2000740F2E8004EF2802607F1B8
:101BF0003401C2F200004FF0000ACEF20006FFF7F7
:101C0000BDFA4FF61445CFF6FF754FF4807B4FF4C5
:101C100000084FF480690FE0397A012000F02EF8B7
:101C2000797A022000F02AF8B97A042000F026F828
:101C3000F97A082000F022F838680028ECD0FEF786
:101C4000F3FC7968401AC928E6D38020605110203F
:101C500060514FF4005060512820C6F804B0C6F817
:101C60000080C6F80090FEF759FD1720FEF756FDDC
:101C70000A20FEF753FDC7F800A0CDE770B540F687
:101C80000044C4F201040E460546CA0920464FF43A
:101C90008071FEF7C3FC20464FF400710122FEF76D
:101CA000BDFC20464FF400710022FEF7B7FCC6F3DE
:101CB000801220464FF48071FEF7B0FC20464FF4AE
:101CC00000710122FEF7AAFC20464FF400710022A9
:101CD000FEF7A4FCC6F3401220464FF48071FEF7D5
:101CE0009DFC20464FF400710122FEF797FC204630
:101CF0004FF400710022FEF791FCC6F3001220465B
:101D00004FF48071FEF78AFC20464FF400710122E7
:101D1000FEF784FC20464FF400710022FEF77EFCA3
:101D2000C6F3C00220464FF48071FEF777FC2046D0
:101D30004FF400710122FEF771FC20464FF4007150
:101D40000022FEF76BFCC6F3800220464FF4807140
:101D5000FEF764FC20464FF400710122FEF75EFCA2
:101D600020464FF400710022FEF758FCC6F34002F3
:101D700020464FF48071FEF751FC20464FF400716D
:101D80000122FEF74BFC20464FF400710022FEF7C3
:101D900045FC06F0010220464FF48071FEF73EFC40
:101DA00020464FF400710122FEF738FC20464FF424
:101DB00000710022FEF732FCEA0920464FF48071E0
:101DC000FEF72CFC20464FF400710122FEF726FCA2
:101DD00020464FF400710022FEF720FCC5F380126C
:101DE00020464FF48071FEF719FC20464FF4007135
:101DF0000122FEF713FC20464FF400710022FEF78B
:101E00000DFCC5F3401220464FF48071FEF706FC2E
:101E100020464FF400710122FEF700FC20464FF4EB
:101E200000710022FEF7FAFBC5F3001220464FF4C2
:101E30008071FEF7F3FB20464FF400710122FEF79C
:101E4000EDFB20464FF400710022FEF7E7FBC5F3DF
:101E5000C00220464FF48071FEF7E0FB20464FF4AD
:101E600000710122FEF7DAFB20464FF400710022D8
:101E7000FEF7D4FBC5F3800220464FF48071FEF7D5
:101E8000CDFB20464FF400710122FEF7C7FB204630
:101E90004FF400710022FEF7C1FBC5F3400220465B
:101EA0004FF48071FEF7BAFB20464FF40071012217
:101EB000FEF7B4FB20464FF400710022FEF7AEFBA4
:101EC00005F0010220464FF48071FEF7A7FB204683
:101ED0004FF400710122FEF7A1FB20464FF4007180
:101EE0000022FEF79BFB20464FF480610122FEF7A3
:101EF00095FB20464FF480610022BDE87040FEF75C
:101F00008DBB01020000000000000000010203047C
:101F1000060708090000000001020304020304058B
:101F2000060708090A0B0C0D0E0F1010501F0008B1
:101F3000000000201000000028010008601F0008B9
:101F400010000020200700004401000800000000ED
:101F500001000000100000000024F4004000000018
:04000005080000ED02
:00000001FF
